S01300004D61737465725F6E616E6F2E737265639A
S11300000C943A000C9457000C9457000C9457002D
S11300100C9457000C9457000C9457000C94570000
S11300200C9457000C9457000C9457000C945700F0
S11300300C9457000C9457000C94C9010C9457006D
S11300400C9457000C9457000C9457000C945700D0
S11300500C9457000C9457000C9457000C945700C0
S11300600C9457000C9457006364696E6F70737539
S113007078585B0011241FBECFEFD8E0DEBFCDBFA0
S113008012E0A0E0B1E0E8E0F2E102C005900D92D8
S1130090A039B107D9F722E0A0E9B2E001C01D926E
S11300A0A33AB207E1F70E94FA010C9402090C94F6
S11300B0000088E48093B8000895ECEBF0E010822F
S11300C016BC109293021092920210929102109216
S11300D0900294EA90830EC0209190023091910294
S11300E02130310539F410929102109290028FEF71
S11300F09FEF0895908199237CF79091B900987FA0
S11301009830A9F48093BB0084E88093BC00ECEBA6
S1130110F0E080818823ECF72091B900287F283112
S113012049F081E090E0203439F480E0089581E0E2
S113013090E0089580E090E008958093BB0084E807
S11301408093BC00ECEBF0E080818823ECF7909185
S1130150B900987F81E0983209F480E0089516BCD4
S113016010929302109292021092910210929002B5
S113017084EC8093BC00ECEBF0E00DC08091900225
S113018090919102019739F4109291021092900289
S11301908FEF9FEF08958081882384F79BB184E0DB
S11301A089278BB98091BB0090E0089584E88093FF
S11301B0BC00ECEBF0E080818823ECF78091BB007D
S11301C00895CF93DF93D82FC62F862F880F0E94D0
S11301D05D00009791F09F938F938FE291E09F933E
S11301E08F930E94C30284E98093BC000F900F9008
S11301F00F900F908FEF9FEF3CC08D2F0E949D00BA
S1130200882351F081E691E00E94D90284E9809329
S1130210BC008FEF9FEF2DC084E891E00E94D902CB
S113022084E98093BC008C2F880F81600E945D005C
S1130230019651F483EA91E00E94D90284E9809303
S1130240BC008FEF9FEF15C00E94D600C82FD0E0EE
S11302501F928F9383EE91E09F938F930E94C3022A
S113026084E98093BC000F900F900F900F908C2F17
S11302709D2FDF91CF910895BF92CF92DF92EF929D
S1130280FF920F931F93CF93DF93D82FC62F862F00
S1130290880F0E945D00882381F099279F938F9394
S11302A08FE291E09F938F930E94C3020F900F906F
S11302B00F900F908FEF9FEF52C08D2F0E949D00E3
S11302C0882339F081E691E00E94D9028FEF9FEFF5
S11302D046C084E891E00E94D9020F2EFCEBEF2E79
S11302E0F12CF02D0F2EF4E9BF2EF02DF701B08282
S11302F08C2F880F81600E945D000E94AF00EC018A
S1130300DD27DF93CF930F2EF9EFCF2EF1E0DF2E11
S1130310F02DDF92CF920E94C3020E94D600082FD4
S113032010E01F928F93DF92CF920E94C302102F8E
S11303300027C00FD11FF701B082DF93CF9383E072
S113034092E09F938F930E94C302EDB7FEB73C9651
S11303500FB6F894FEBF0FBEEDBF8C2F9D2FDF911B
S1130360CF911F910F91FF90EF90DF90CF90BF90AE
S1130370089584B5826084BD89EF87BD16BCEEE61E
S1130380F0E080818260808385B5836085BD789448
S113039008951F920F920FB60F9211248F939F937B
S11303A0809192029091930201969093930280938C
S11303B092028091920290919302449751F481E0C9
S11303C090E0909391028093900210929302109285
S11303D092028091900290919102892B19F488E005
S11303E08BB901C01BB89F918F910F900FBE0F90D6
S11303F01F9018958FEF8AB98BB90E9459000E94FB
S1130400B9010E94A7020E94B8020F2EF4E9EF2E50
S1130410F2E0FF2EF02D05E412E0C0E5D2E086E321
S113042092E00E94D902FF92EF921F930F930E94D1
S1130430090388E492E00E94D9020E9447021F92B5
S11304408F93DF93CF930E94C3028DB79EB7089614
S11304500FB6F8949EBF0FBE8DBFE1CFFC0170E0D4
S11304609B01215031091616170674F480E0AF0180
S1130470022E02C0559547950A94E2F741708427ED
S113048021503109A0F701C080E090E008951F9346
S1130490CF93DF9360E481E00E94E100EC0160E42B
S11304A080E00E94E100182F68E0CE010E942E0235
S11304B0219751F518132AC081E090E09093970298
S11304C0809396028EE592E00E94D90260E482E075
S11304D00E943C01EC0160E480E00E94E100182FDE
S11304E060E1CE010E942E02CF3F9FEFD90781F039
S11304F0181310C0D0939902C093980285E792E034
S11305000E94D90281E007C080E005C080E003C0FA
S113051080E001C080E0DF91CF911F910895CF93D7
S1130520C82F8A3019F48DE00E948F02E0ECF0E0CD
S1130530808185FFFDCFC093C600CF910895E0EC84
S1130540F0E080818823ECF78091C6000895109232
S1130550C50087E68093C400E0ECF0E080818D7FE5
S1130560808386E08093C20088E18093C10008956F
S1130570EDE9F2E08EE091E09383828380E091E004
S1130580918380830895A0E0B0E0E9ECF2E00C945C
S1130590DB08AE014B5F5F4FFA0161917191AF01CE
S11305A080919F029091A0020E941F03E2E00C94AC
S11305B0F7080F931F93CF93DF93E0919F02F0917D
S11305C0A002238121FF1BC08C01D0E0C0E0F80110
S11305D081918F0160919F027091A002DB011896B6
S11305E0ED91FC911997882331F00995892B79F3C2
S11305F0DFEFCFEFECCF8AE00995892B19F08FEF6D
S11306009FEF02C08D2F9C2FDF91CF911F910F91EF
S11306100895A0E0B0E0EFE0F3E00C94DB08AE0155
S11306204B5F5F4FFA0161917191AF0180919D021F
S113063090919E020E949C06E2E00C94F708ABE0C5
S1130640B0E0E5E2F3E00C94CB086C017B018A0195
S1130650FC0117821682838181FFCCC1CE010196F1
S11306603C01F6019381F70193FD859193FF8191FC
S11306707F01882309F4BAC1853239F493FD859149
S113068093FF81917F01853229F4B60190E00E94A5
S11306901508E7CF912C212C312CFFE1F315D8F06C
S11306A08B3279F038F4803279F08332A1F4232D3F
S11306B020611DC08D3261F0803369F4232D2160E7
S11306C016C0832D8260382EE32DE4603E2E2AC0AE
S11306D0F32DF8601DC037FC2DC020ED280F2A3003
S11306E040F08E32B9F436FC81C1232D2064322EC1
S11306F019C036FE06C08AE0989E200D1124922E61
S113070011C0EAE02E9E200D1124222EF32DF0625A
S11307103F2E08C08C3621F4832D8068382E02C009
S1130720883641F4F70193FD859193FF81917F0110
S11307308111B3CF982F9F7D9554933028F40C5F8B
S11307401F4F9FE399830DC0833631F0833771F0D7
S1130750833509F059C021C0F801808189830E5F77
S11307601F4F88248394912C530113C02801F2E075
S11307704F0E511CF801A080B18036FE03C0692DD4
S113078070E002C06FEF7FEFC5010E94CC074C01FF
S11307908201F32DFF773F2E16C0280122E0420E7E
S11307A0511CF801A080B18036FE03C0692D70E0B1
S11307B002C06FEF7FEFC5010E94C1074C01F32D0A
S11307C0F0683F2E820133FC1BC0822D90E0881616
S11307D09906B0F4B60180E290E00E9415082A94CC
S11307E0F4CFF50137FC859137FE81915F01B601A5
S11307F090E00E94150821102A9421E0821A9108A1
S11308008114910471F7E8C0843611F0893641F5FA
S1130810F80137FE07C060817181828193810C5F8A
S11308201F4F08C060817181072E000C880B990B43
S11308300E5F1F4FF32DFF763F2E97FF09C0909553
S11308408095709561957F4F8F4F9F4FF0683F2E35
S11308502AE030E0A3010E946A08882E861845C069
S1130860853731F4232D2F7EB22E2AE030E025C0C7
S1130870932D997FB92E8F36C1F018F4883579F00D
S1130880B5C0803719F0883721F0B0C0E92FE06196
S1130890BE2EB4FE0DC0FB2DF460BF2E09C034FE85
S11308A00AC0292F2660B22E06C028E030E005C019
S11308B020E130E002C020E132E0F801B7FE07C0D9
S11308C060817181828193810C5F1F4F06C06081BA
S11308D0718180E090E00E5F1F4FA3010E946A08BF
S11308E0882E8618FB2DFF773F2E36FE0DC0232D54
S11308F02E7FA22E891458F434FE0BC032FC09C09A
S1130900832D8E7EA82E05C0B82CA32C03C0B82C32
S113091001C0B92CA4FE0FC0FE01E80DF11D8081B9
S1130920803321F49A2D997EA92E09C0A2FE06C017
S1130930B394B39404C08A2D867809F0B394A3FCCD
S113094011C0A0FE06C0B21488F4280C922C9B1887
S11309500EC0B21460F4B60180E290E00E94150863
S1130960B394F7CFB21418F42B1802C0982C212C8E
S1130970A4FE10C0B60180E390E00E941508A2FE18
S113098017C0A1FC03C088E790E002C088E590E0AE
S1130990B6010CC08A2D867859F0A1FE02C08BE204
S11309A001C080E2A7FC8DE2B60190E00E94150828
S11309B0891438F4B60180E390E00E9415089A94F3
S11309C0F7CF8A94F301E80DF11D8081B60190E020
S11309D00E9415088110F5CF222009F442CEB601F9
S11309E080E290E00E9415082A94F6CFF6018681F1
S11309F0978102C08FEF9FEF2B96E2E10C94E708FA
S1130A0020FD09C0FC0123FD05C022FF02C0738341
S1130A10628351834083089544FD17C046FD17C087
S1130A20AB01BC01DA01FB01AA0FBB1FEE1FFF1FC4
S1130A301094D1F74A0F5B1F6E1F7F1FCB01BA01C1
S1130A40660F771F881F991F09C033E001C034E087
S1130A50660F771F881F991F3150D1F7620F711DE0
S1130A60811D911D08950F931F93CF93DF938C01E4
S1130A70C8010E94D707EC0197FD08C00E94AD078A
S1130A80892BB1F7B801CE010E945108CE01DF9144
S1130A90CF911F910F9108958F929F92AF92BF9221
S1130AA0EF92FF920F931F93CF93DF938C01D62F76
S1130AB07A01B22E0E94D7079C0133272B323105CD
S1130AC031F02D32310561F48B2D8068B82ED15070
S1130AD011F480E068C0C8010E94D70797FDF9CFE0
S1130AE0CB2DCD7F2B2D207309F58033F9F4AA2467
S1130AF0AA94AD0E09F443C0C8010E94D70797FD1C
S1130B003EC09C012F7D33272835310549F4C2644A
S1130B10D250A9F1C8010E94D70797FF07C02FC080
S1130B20B6FE02C0C26001C0C261DA2D812C912CD4
S1130B30540120ED280F283080F0C4FF04C0B80110
S1130B400E94510819C02A3040F0C6FFF8CF2F7D0B
S1130B503FEE320F363098F727504C2FC501B401C1
S1130B600E940C054B015C01C260D15059F0C801D0
S1130B700E94D70797FFDDCFC1FD04C0AACF812C07
S1130B80912C5401C7FF08C0B094A0949094809411
S1130B90811C911CA11CB11C2C2FB501A401C701FF
S1130BA00E94000581E0DF91CF911F910F91FF908A
S1130BB0EF90BF90AF909F908F900895A0E2B0E027
S1130BC0E4EEF5E00C94CE085C01962E7A01F9016E
S1130BD08E010F5F1F4F680180E2D8011D928A9534
S1130BE0E9F7D50113968C9080E090E0612C712C8C
S1130BF030E061E070E083FC259183FE21918F0158
S1130C00522E211103C080E090E092C02E3511F4E1
S1130C10009751F1432F50E0481759073CF42D3504
S1130C2059F12D3219F4772009F103C0772009F422
S1130C306AC0452D469546954695D601A40FB11D2B
S1130C40452D47708B0102C0000F111F4A95E2F732
S1130C50A8015C91452B4C93651459F0561410F47B
S1130C605394E7CF5A94E5CF31E004C077247394CA
S1130C7001C0712C0196BFCF772019F08E8180625C
S1130C808E83311103C08824839417C0F6019E011A
S1130C902F5D3F4F8081809581932E173F07D1F7B9
S1130CA0F2CFE114F10429F0D7018C93F7013196C6
S1130CB07F019A94812C9920F9F0C5010E94D707ED
S1130CC097FD18C0FC01FF2723E0F595E7952A95C9
S1130CD0E1F7EC0DFD1D208130E0AC014770552794
S1130CE002C0359527954A95E2F720FDDACFB50184
S1130CF00E945108811087CFE114F10411F0D7014B
S1130D001C92C80115C0422F469546954695D601BA
S1130D10A40FB11D422F47708B0102C0000F111F99
S1130D204A95E2F7A8015C91452B4C93622EA2CF21
S1130D30A096EFE00C94EA08A0E0B0E0E2EAF6E066
S1130D400C94CE086C01EB015A01FC011782168247
S1130D50512CF601E380FE01E3FC8591E3FE8191D1
S1130D60182FEF01882309F4EEC090E00E94AD072C
S1130D70892B21F0C6010E943305EBCF153241F4D3
S1130D80FE01E3FC1591E3FE1191EF01153281F4AC
S1130D90C6010E94D70797FDD4C0412F50E09C01A3
S1130DA0332724173507A9F2B6010E945108CBC096
S1130DB01A3239F4E3FC1591E3FE1191EF0101E0DD
S1130DC001C000E0F12C20ED210F2A3080F40260F4
S1130DD06F2D70E080E090E040E20E940C05F62E5A
S1130DE0FE01E3FC1591E3FE1191EF01ECCF01FF4D
S1130DF003C0F11003C0A7C0FF24FA94183619F0F9
S1130E001C3651F010C0FE01E3FC1591E3FE119174
S1130E10EF01183641F408600460FE01E3FC15910B
S1130E20E3FE1191EF01112309F48DC0612F70E0ED
S1130E3088E690E00E94B607892B09F484C000FD7F
S1130E4007C0F50180809180C50102965C0102C053
S1130E50812C912C1E3651F4F6014681578160E0B5
S1130E6070E0202FC4010E94000573CF1336A9F44B
S1130E7001FD02C0FF24F394C6010E94D70797FD29
S1130E8060C08114910429F0F4018083C4010196A7
S1130E904C01FA94F110F0CF50C01B3559F49E0167
S1130EA0A4016F2DC6010E94DE05EC01892B09F017
S1130EB044C03EC0C6010E94330597FD42C01F36A0
S1130EC061F128F4143639F1193651F128C0133779
S1130ED071F0153701F123C08114910429F0F40154
S1130EE06082C40101964C01FA94FF2071F0C6019E
S1130EF00E94D7073C0197FD08C00E94AD07892BCB
S1130F0059F3B601C3010E94510881149104A9F058
S1130F10F401108212C0006203C0006101C00064C9
S1130F20202FA4016F2DC6010E944C05811105C01C
S1130F30F6018381807329F406C000FD0ACF53941F
S1130F4008CF552019F0852D90E002C08FEF9FEF58
S1130F50CDB7DEB7EFE00C94EA0891110C94C80801
S1130F60803219F089508550C8F70895FC01059026
S1130F70061621F00020D9F7C00108953197CF015A
S1130F800895FC010590615070400110D8F78095D8
S1130F9090958E0F9F1F0895FC0161507040019041
S1130FA00110D8F7809590958E0F9F1F0895CF93C9
S1130FB0DF93EC012B8120FF33C026FF0AC02F7B77
S1130FC02B838E819F8101969F838E838A8190E0FB
S1130FD029C022FF0FC0E881F9818081082E000C0E
S1130FE0990B009719F420622B831AC03196F98368
S1130FF0E8830EC0EA85FB85099597FF09C02B811C
S1131000019611F080E201C080E1822B8B8308C03D
S11310102E813F812F5F3F4F3F832E83992702C04C
S11310208FEF9FEFDF91CF9108950F931F93CF938D
S1131030DF93FB01238121FD03C08FEF9FEF2CC0C1
S113104022FF16C0468157812481358142175307F8
S113105044F4A081B1819D012F5F3F4F31832083F0
S11310608C93268137812F5F3F4F3783268314C0AB
S11310708B01EC01FB010084F185E02D0995892B9E
S1131080E1F6D80116968D919C91179701961796C3
S11310909C938E931697CE01DF91CF911F910F9160
S11310A00895FB01238120FF12C026FD10C08F3F4D
S11310B03FEF930761F082832F7D20642383268191
S11310C037812150310937832683992708958FEF7B
S11310D09FEF0895FA01AA27283051F1203181F1B8
S11310E0E8946F936E7F6E5F7F4F8F4F9F4FAF4F2C
S11310F0B1E03ED0B4E03CD0670F781F891F9A1F3F
S1131100A11D680F791F8A1F911DA11D6A0F711DF2
S1131110811D911DA11D20D009F468943F912AE0FE
S1131120269F11243019305D3193DEF6CF010895E6
S1131130462F4770405D4193B3E00FD0C9F7F6CF17
S1131140462F4F70405D4A3318F0495D31FD4052DF
S1131150419302D0A9F7EACFB4E0A6959795879575
S113116077956795BA95C9F7009761057105089554
S11311709B01AC010A2E0694579547953795279500
S1131180BA95C9F7620F731F841F951FA01D089598
S11311909927882708952F923F924F925F926F92DA
S11311A07F928F929F92AF92BF92CF92DF92EF92F3
S11311B0FF920F931F93CF93DF93CDB7DEB7CA1B74
S11311C0DB0B0FB6F894DEBF0FBECDBF09942A889F
S11311D0398848885F846E847D848C849B84AA8447
S11311E0B984C884DF80EE80FD800C811B81AA81D4
S11311F0B981CE0FD11D0FB6F894DEBF0FBECDBF9F
S10B1200ED010895F894FFCFFD
S1131208000000010000000000009F020000000030
S11312180002000000008F02000000002558206929
S113122873206F6E2074686520627573200A0054F9
S113123868652072656365697665722069732075CF
S11312486E726573706F6E736976652072657475F6
S1131258726E2076616C7565206973202564200A96
S113126800546865207265636569766572206469EF
S113127864206E6F742061636B20746865206461F8
S113128874612000546865207265636569766572C7
S1131298206469642061636B2074686520646174E8
S11312A861200054686520726563656976657220FB
S11312B873656E6473206E6F2064617461200054DA
S11312C8686520726563656976657220646964205F
S11312D86E6F742073656E6420746865206461742D
S11312E861200054686520726563656976657220BB
S11312F8646174612025640A006461746120256452
S1131308200A00526573756C743D25640A00646193
S1131318746120256C64200A0073746F7070696EA0
S11313286720693263200A2000526573756C743D26
S1131338256C64200A00696E7075742061206E75CE
S11313486D626572002564007468616E6B732000B9
S1131358726573756C74203D202564200A005374EB
S113136861747573206D6573736761652077617344
S1131378206F6B2000646972656374696F6E202046
S11313886D65737367616520776173206F6B2000E7
S9030000FC
