:100000000C9434000C9451000C9451000C94510049
:100010000C9451000C9451000C9451000C9451001C
:100020000C9451000C9451000C9451000C943A041F
:100030000C9451000C9451000C9451000C945100FC
:100040000C9451000C9451000C9451000C945100EC
:100050000C9451000C9451000C9451000C945100DC
:100060000C9430010C94510011241FBECFEFD8E046
:10007000DEBFCDBF11E0A0E0B1E0E8E2F4E102C0F4
:1000800005900D92AA34B107D9F721E0AAE4B1E0B6
:1000900001C01D92AE37B207E1F70E9486010C94B1
:1000A000120A0C94000080E480937C0087E880931F
:1000B0007A000895ECE7F0E09081907F9083908142
:1000C000892B8083EAE7F0E08081806480838091DF
:1000D00056018F5F843018F48093560102C010924D
:1000E0005601EAE7F0E0808186FDFDCF809178003F
:1000F000909179000895CF92DF92EF92FF92CF9383
:10010000DF93809156010E945A00BC0180E090E08C
:100110000E94ED056B017C0160935C0170935D01B1
:1001200080935E0190935F0120E030E0A9010E947E
:100130004005811109C01092520110925301109292
:1001400054011092550135C020E030EC4FE754E4E3
:10015000C701B6010E94450520E030E44CE955E4B2
:100160000E949F06609358017093590180935A0131
:1001700090935B0120E030E44CE155E40E94D3040D
:1001800020E030E048EC52E40E94450560935201C3
:10019000709353018093540190935501C09156017F
:1001A000D0E0CC0FDD1FC05ADE4F0E94B705798327
:1001B000688380917C00E0915601F0E0EE0FFF1F14
:1001C000E05AFE4F91819F9390819F9390915F01A0
:1001D0009F9390915E019F9390915D019F93909169
:1001E0005C019F931F928F938CE191E09F938F937B
:1001F0000E9434078DB79EB70A960FB6F8949EBF3B
:100200000FBE8DBFDF91CF91FF90EF90DF90CF9029
:100210000895CF93C82F80916801811106C0C093C3
:100220006C0181E08093680104C0C09369010E9461
:100230004502C0936901CF9108950E9445028091C3
:1002400069018093BB000895F894880F8093BA00E9
:1002500085EC8093BC00789408958093690108959B
:100260001F920F920FB60F9211242F933F934F932B
:100270005F936F937F938F939F93AF93BF93EF930E
:10028000FF938091B900887F803849F018F4882363
:10029000D1F01FC0883A59F0883B79F01AC085EC3C
:1002A0008093BC008091BB000E94090115C00E9490
:1002B0001D0185EC8093BC000FC00E941D0185ECE0
:1002C0008093BC0009C0ECEBF0E0108285EC8083E9
:1002D00003C085EC8093BC00FF91EF91BF91AF917B
:1002E0009F918F917F916F915F914F913F912F914E
:1002F0000F900FBE0F901F9018958BE084B915B822
:1003000017B818B888EE8AB91BB80895109266011C
:1003100010926D01109267010E94B7040E94C804F8
:100320000E947D010E9491020E9498020E94530047
:1003300081E40E942401789480916601813021F447
:100340000E940104109266010E947B00F5CFFC011F
:1003500070E09B01215031091616170674F480E0F5
:10036000AF01022E02C0559547950A94E2F74170FD
:10037000842721503109A0F701C080E090E0089562
:1003800080916801823059F480916D0168E090E0BD
:100390000E94A7010E942D0110926801089580918A
:1003A0006D010E942D01809168018F5F809368012B
:1003B00008950F931F93CF93209168012330E9F4A0
:1003C000C091690100914B0110914C0160E1C8019D
:1003D0000E94A7012C2F30E08217930739F4109365
:1003E0006B0100936A0181E08093660110924C01D9
:1003F00010924B01109268011FC08091690190E03A
:10040000422F50E041505109440F551F440F551FD2
:10041000440F551F02C0880F991F4A95E2F740917B
:100420004B0150914C01840F951F90934C01809388
:100430004B012F5F20936801CF911F910F91089579
:10044000CF93DF93809168018230A9F4C091690154
:10045000D0914A0168E08D2F90E00E94A7012C2FD7
:1004600030E08217930721F4D093670110924A017C
:100470001092680107C09091690190934A018F5FC3
:1004800080936801DF91CF91089580916C01813054
:1004900039F018F0823039F008950E94C0010895B3
:1004A0000E94D90108950E942002089584B58068B1
:1004B00084BD84B5806284BD84B58B6084BD17BC67
:1004C00018BC85B5826085BD089510928000109299
:1004D0008500109284008FE99FE0909389008093BB
:1004E0008800E1E8F0E0808189608083EFE6F0E059
:1004F0008081826080830895E0EBF0E080818068F5
:10050000808380818062808380818B608083109271
:10051000B3001092B400E1EBF0E080818260808350
:1005200008950E9456020E9465020E947C0208956E
:10053000EEE6F1E01182108213821282158214829B
:10054000178216825C98089587B590E020916E011D
:1005500030916F01821793074CF487B58D3218F4F0
:100560008DE287BD03C087B58F5F87BD87B590E0FB
:1005700020916E0130916F012817390744F487B537
:100580008E3220F087B5815087BD01C017BC88B579
:1005900090E02091700130917101821793074CF423
:1005A00088B58D3218F48DE288BD03C088B58F5FA1
:1005B00088BD88B590E020917001309171012817B5
:1005C000390744F488B58E3220F088B5815088BD53
:1005D000089518BC08958091B30090E020917201B5
:1005E00030917301821793076CF48091B3008D32C0
:1005F00020F48DE28093B30005C0E3EBF0E080814E
:100600008F5F80838091B30090E0209172013091E0
:1006100073012817390764F48091B3008E3230F0EB
:10062000E3EBF0E080818150808302C01092B30040
:100630008091B40090E0209174013091750182178F
:1006400093076CF48091B4008D3220F48DE2809396
:10065000B40005C0E4EBF0E080818F5F808380917F
:10066000B40090E02091740130917501281739078A
:1006700064F48091B4008E3230F0E4EBF0E08081DD
:100680008150808308951092B40008955C9AEEE63C
:10069000F1E08FEF90E091838083938382830895CC
:1006A000EEE6F1E011821082138212825C980895C6
:1006B000EEE6F1E0158214821782168208954F99B2
:1006C00002C0189B0EC00E945803E3EBF0E0A4EBBD
:1006D000B0E08081882319F08C918111FACF5F9866
:1006E0002898EEE6F1E08FEF90E09583848397837E
:1006F000868308954F9B02C018990EC00E9458032C
:10070000E3EBF0E0A4EBB0E08081882319F08C915A
:100710008111FACF5F9A289AEEE6F1E08FEF90E030
:1007200095838483978386830895CF93DF93EC0129
:100730000F964F9708F058C04F9B02C0189B0EC0F1
:100740000E945803E3EBF0E0A4EBB0E08081882343
:1007500019F08C918111FACF5F9A2898DD231CF152
:100760002091760130917701809176019091770107
:10077000EEE6F1E08D976FE070E00E940C076C9F51
:10078000C0016D9F900D7C9F900D1124281B390B8B
:1007900035832483809176019091770197838683B6
:1007A0001C161D065CF180917601909177012091D5
:1007B000760130917701EEE6F1E08D976FE070E021
:1007C0000E940C076C9FC0016D9F900D7C9F900D47
:1007D0001124280F391F3783268380917601909149
:1007E0007701958384830AC0C031D10514F00E943B
:1007F0007A03C13FDF4F14F40E945F03DF91CF9172
:1008000008958FEF90E09093770180937601809127
:1008100067018230C9F028F4882341F0813071F0FB
:1008200008958330B9F0843011F1089581E0809308
:1008300051010E9458030E945003089581E0809363
:1008400051010E945803089582EB90E09093770144
:10085000809376011092510180916A0190916B0111
:100860000E94950310924E0110924D0108950E942E
:10087000460308951F920F920FB60F9211242F93E3
:100880003F934F935F936F937F938F939F93AF9318
:10089000BF93EF93FF9380914F0190915001019688
:1008A0009093500180934F0180916701823048F00E
:1008B00080914D0190914E01019690934E0180934D
:1008C0004D019BB184E089278BB980915101813022
:1008D00021F40E94EB020E94A40280914F019091AA
:1008E00050018536910544F00E94A4020E94EB025B
:1008F0001092500110924F0180914D0190914E0144
:10090000813D97405CF081E0809351010E94580343
:100910000E94500310924E0110924D01FF91EF91F1
:10092000BF91AF919F918F917F916F915F914F9107
:100930003F912F910F900FBE0F901F901895CF935E
:10094000C82F8A3019F48DE00E949F04E0ECF0E09B
:10095000808185FFFDCFC093C600CF910895E0EC64
:10096000F0E080818823ECF78091C6000895109212
:10097000C50087E68093C400E0ECF0E080818D7FC5
:10098000808386E08093C20088E18093C10008954F
:10099000E8E7F1E08EE091E09383828380E091E0EC
:1009A0009183808308955058BB27AA270E94EB04A7
:1009B0000C9465060E94570638F00E945E0620F0EF
:1009C00039F49F3F19F426F40C9454060EF4E09584
:1009D000E7FB0C944E06E92F0E94760658F3BA17EF
:1009E000620773078407950720F079F4A6F50C9445
:1009F00098060EF4E0950B2EBA2FA02D0B01B9012D
:100A000090010C01CA01A0011124FF27591B99F084
:100A1000593F50F4503E68F11A16F040A22F232F90
:100A2000342F4427585FF3CF469537952795A795E0
:100A3000F0405395C9F77EF41F16BA0B620B730B87
:100A4000840BBAF09150A1F0FF0FBB1F661F771FF8
:100A5000881FC2F70EC0BA0F621F731F841F48F4AD
:100A6000879577956795B795F7959E3F08F0B0CF36
:100A70009395880F08F09927EE0F9795879508951D
:100A80000E942A0608F481E008950E9459050C94FA
:100A900065060E945E0658F00E94570640F029F451
:100AA0005F3F29F00C944E0651110C9499060C945A
:100AB00054060E94760668F39923B1F3552391F307
:100AC000951B550BBB27AA2762177307840738F0BD
:100AD0009F5F5F4F220F331F441FAA1FA9F335D01A
:100AE0000E2E3AF0E0E832D091505040E695001CCE
:100AF000CAF72BD0FE2F29D0660F771F881FBB1F88
:100B0000261737074807AB07B0E809F0BB0B802D65
:100B1000BF01FF2793585F4F3AF09E3F510578F091
:100B20000C944E060C9499065F3FE4F3983ED4F380
:100B3000869577956795B795F7959F5FC9F7880F65
:100B4000911D9695879597F90895E1E0660F771FB7
:100B5000881FBB1F621773078407BA0720F0621B48
:100B6000730B840BBA0BEE1F88F7E09508950E9473
:100B7000BE056894B1110C94990608950E947E06F2
:100B800088F09F5798F0B92F9927B751B0F0E1F04E
:100B9000660F771F881F991F1AF0BA95C9F714C0FE
:100BA000B13091F00E949806B1E008950C94980637
:100BB000672F782F8827B85F39F0B93FCCF3869537
:100BC00077956795B395D9F73EF490958095709594
:100BD00061957F4F8F4F9F4F0895E89409C097FB11
:100BE0003EF490958095709561957F4F8F4F9F4F04
:100BF0009923A9F0F92F96E9BB279395F695879548
:100C000077956795B795F111F8CFFAF4BB0F11F40A
:100C100060FF1BC06F5F7F4F8F4F9F4F16C08823B1
:100C200011F096E911C0772321F09EE8872F762FE7
:100C300005C0662371F096E8862F70E060E02AF028
:100C40009A95660F771F881FDAF7880F9695879514
:100C500097F90895990F0008550FAA0BE0E8FEEFE9
:100C600016161706E807F907C0F012161306E40770
:100C7000F50798F0621B730B840B950B39F40A2669
:100C800061F0232B242B252B21F408950A2609F447
:100C9000A140A6958FEF811D811D089597F99F674B
:100CA00080E870E060E008959FEF80EC08950024F4
:100CB0000A941616170618060906089500240A94C1
:100CC00012161306140605060895092E0394000C47
:100CD00011F4882352F0BB0F40F4BF2B11F460FFD6
:100CE00004C06F5F7F4F8F4F9F4F089557FD9058FF
:100CF000440F551F59F05F3F71F04795880F97FBE0
:100D0000991F61F09F3F79F0879508951216130699
:100D10001406551FF2CF4695F1DF08C016161706C8
:100D20001806991FF1CF86957105610508940895FD
:100D3000E894BB2766277727CB0197F908950E948F
:100D4000B2060C9465060E94570638F00E945E06B3
:100D500020F0952311F00C944E060C9454061124A7
:100D60000C9499060E94760670F3959FC1F3950F37
:100D700050E0551F629FF001729FBB27F00DB11D1F
:100D8000639FAA27F00DB11DAA1F649F6627B00DAF
:100D9000A11D661F829F2227B00DA11D621F739F98
:100DA000B00DA11D621F839FA00D611D221F749FA6
:100DB0003327A00D611D231F849F600D211D822FED
:100DC000762F6A2F11249F5750409AF0F1F0882314
:100DD0004AF0EE0FFF1FBB1F661F771F881F915041
:100DE0005040A9F79E3F510580F00C944E060C949C
:100DF00099065F3FE4F3983ED4F38695779567951F
:100E0000B795F795E7959F5FC1F7FE2B880F911D6A
:100E10009695879597F9089597FB072E16F40094F9
:100E200007D077FD09D00E94200707FC05D03EF4CB
:100E3000909581959F4F0895709561957F4F089586
:100E4000AA1BBB1B51E107C0AA1FBB1FA617B707F0
:100E500010F0A61BB70B881F991F5A95A9F780950C
:100E60009095BC01CD010895A0E0B0E0EAE3F7E081
:100E70000C94EB09AE014B5F5F4FFA0161917191E8
:100E8000AF0180917A0190917B010E944A07E2E0D4
:100E90000C94070AABE0B0E0E0E5F7E00C94DB0966
:100EA0006C017B018A01FC0117821682838181FF1C
:100EB000CCC1CE0101963C01F6019381F70193FD6F
:100EC000859193FF81917F01882309F4BAC185320E
:100ED00039F493FD859193FF81917F01853229F447
:100EE000B60190E00E944109E7CF912C212C312CD2
:100EF000FFE1F315D8F08B3279F038F4803279F0D5
:100F00008332A1F4232D20611DC08D3261F0803326
:100F100069F4232D216016C0832D8260382EE32DC5
:100F2000E4603E2E2AC0F32DF8601DC037FC2DC0B2
:100F300020ED280F2A3040F08E32B9F436FC81C102
:100F4000232D2064322E19C036FE06C08AE0989EFA
:100F5000200D1124922E11C0EAE02E9E200D1124A6
:100F6000222EF32DF0623F2E08C08C3621F4832D03
:100F70008068382E02C0883641F4F70193FD8591D0
:100F800093FF81917F018111B3CF982F9F7D95545D
:100F9000933028F40C5F1F4F9FE399830DC0833675
:100FA00031F0833771F0833509F059C021C0F80161
:100FB000808189830E5F1F4F88248394912C530175
:100FC00013C02801F2E04F0E511CF801A080B1803F
:100FD00036FE03C0692D70E002C06FEF7FEFC501E0
:100FE0000E9436094C018201F32DFF773F2E16C077
:100FF000280122E0420E511CF801A080B18036FE8B
:1010000003C0692D70E002C06FEF7FEFC5010E9441
:101010002B094C01F32DF0683F2E820133FC1BC0DD
:10102000822D90E088169906B0F4B60180E290E037
:101030000E9441092A94F4CFF50137FC859137FECF
:1010400081915F01B60190E00E94410921102A942C
:1010500021E0821A91088114910471F7E8C0843666
:1010600011F0893641F5F80137FE07C060817181C2
:10107000828193810C5F1F4F08C060817181072EB0
:10108000000C880B990B0E5F1F4FF32DFF763F2E40
:1010900097FF09C090958095709561957F4F8F4F10
:1010A0009F4FF0683F2E2AE030E0A3010E947D09A7
:1010B000882E861845C0853731F4232D2F7EB22E19
:1010C0002AE030E025C0932D997FB92E8F36C1F0EC
:1010D00018F4883579F0B5C0803719F0883721F0D9
:1010E000B0C0E92FE061BE2EB4FE0DC0FB2DF46050
:1010F000BF2E09C034FE0AC0292F2660B22E06C0BA
:1011000028E030E005C020E130E002C020E132E01C
:10111000F801B7FE07C060817181828193810C5F05
:101120001F4F06C06081718180E090E00E5F1F4F0D
:10113000A3010E947D09882E8618FB2DFF773F2E84
:1011400036FE0DC0232D2E7FA22E891458F434FEB6
:101150000BC032FC09C0832D8E7EA82E05C0B82C92
:10116000A32C03C0B82C01C0B92CA4FE0FC0FE01F3
:10117000E80DF11D8081803321F49A2D997EA92EEE
:1011800009C0A2FE06C0B394B39404C08A2D867829
:1011900009F0B394A3FC11C0A0FE06C0B21488F4F9
:1011A000280C922C9B180EC0B21460F4B60180E299
:1011B00090E00E944109B394F7CFB21418F42B18B1
:1011C00002C0982C212CA4FE10C0B60180E390E050
:1011D0000E944109A2FE17C0A1FC03C088E790E06D
:1011E00002C088E590E0B6010CC08A2D867859F0DF
:1011F000A1FE02C08BE201C080E2A7FC8DE2B60135
:1012000090E00E944109891438F4B60180E390E02F
:101210000E9441099A94F7CF8A94F301E80DF11DD9
:101220008081B60190E00E9441098110F5CF222013
:1012300009F442CEB60180E290E00E9441092A946E
:10124000F6CFF6018681978102C08FEF9FEF2B9634
:10125000E2E10C94F709FC01059061507040011027
:10126000D8F7809590958E0F9F1F0895FC016150CF
:10127000704001900110D8F7809590958E0F9F1FB8
:1012800008950F931F93CF93DF93FB01238121FDDB
:1012900003C08FEF9FEF2CC022FF16C046815781FD
:1012A000248135814217530744F4A081B1819D0107
:1012B0002F5F3F4F318320838C93268137812F5FAF
:1012C0003F4F3783268314C08B01EC01FB01008460
:1012D000F185E02D0995892BE1F6D80116968D91BF
:1012E0009C911797019617969C938E931697CE0113
:1012F000DF91CF911F910F910895FA01AA2728300D
:1013000051F1203181F1E8946F936E7F6E5F7F4FD2
:101310008F4F9F4FAF4FB1E03ED0B4E03CD0670F4E
:10132000781F891F9A1FA11D680F791F8A1F911DA1
:10133000A11D6A0F711D811D911DA11D20D009F4F1
:1013400068943F912AE0269F11243019305D319333
:10135000DEF6CF010895462F4770405D4193B3E01C
:101360000FD0C9F7F6CF462F4F70405D4A3318F0C3
:10137000495D31FD4052419302D0A9F7EACFB4E074
:10138000A6959795879577956795BA95C9F700972C
:101390006105710508959B01AC010A2E06945795CD
:1013A000479537952795BA95C9F7620F731F841F24
:1013B000951FA01D08952F923F924F925F926F92BA
:1013C0007F928F929F92AF92BF92CF92DF92EF92D5
:1013D000FF920F931F93CF93DF93CDB7DEB7CA1B56
:1013E000DB0B0FB6F894DEBF0FBECDBF09942A8881
:1013F000398848885F846E847D848C849B84AA8429
:10140000B984C884DF80EE80FD800C811B81AA81B5
:10141000B981CE0FD11D0FB6F894DEBF0FBECDBF80
:08142000ED010895F894FFCFDF
:1014280000000001000000000000AF040000000000
:101438000002000000009F04000000004368616E85
:101448006E656C3A2025642009204144432076616A
:101458006C75653A20252E31662009205265737512
:0A1468006C743A20202564200A006D
:00000001FF
