S014000046696E616C5F696D706C656D2E7372656343
S11300000C9434000C9451000C9451000C94510045
S11300100C9451000C9451000C9451000C94510018
S11300200C9451000C9451000C9451000C94D00386
S11300300C9451000C9451000C9451000C945100F8
S11300400C9451000C9451000C9451000C945100E8
S11300500C9451000C9453000C9451000C945100D6
S11300600C94C8000C94510011241FBECFEFD8E0AB
S1130070DEBFCDBF11E0A0E0B1E0E8E6F9E002C0E8
S113008005900D92AC35B107D9F721E0ACE5B1E0AC
S113009001C01D92AF37B207E1F70E941F010C9413
S11300A0B2040C9400001F920F920FB60F92112409
S11300B02F933F934F935F936F937F938F939F936C
S11300C0AF93BF93EF93FF9380917C00813481F0D1
S11300D018F4803431F020C0823489F08334B1F0D4
S11300E01BC08FE18093640181E08093630118C099
S11300F080E28093640182E08093630111C081E215
S11301008093640183E0809363010AC082E2809358
S113011064011092630104C08CE191E00E948204A6
S1130120FF91EF91BF91AF919F918F917F916F91CB
S11301305F914F913F912F910F900FBE0F901F90A1
S11301401895CF93C82F80916901811106C0C0937F
S11301506D0181E08093690104C0C0936A010E942B
S1130160E301C0936A01CF9108950E94E301809155
S11301706A018093BB000895F894880F8093BA00B5
S113018085EC8093BC007894089580936A01089567
S11301901F920F920FB60F9211242F933F934F93F8
S11301A05F936F937F938F939F93AF93BF93EF93DB
S11301B0FF938091B900887F803849F018F4882330
S11301C0D1F01FC0883A59F0883B79F01AC085EC09
S11301D08093BC008091BB000E94A10015C00E94C6
S11301E0B50085EC8093BC000FC00E94B50085EC7F
S11301F08093BC0009C0ECEBF0E0108285EC8083B6
S113020003C085EC8093BC00FF91EF91BF91AF9147
S11302109F918F917F916F915F914F913F912F911A
S11302200F900FBE0F901F9018958BE084B915B8EE
S11302308FE087B918B888EE8AB91BB80895109270
S1130240670110926E01109268010E943E040E94A0
S11302504F040E9415010E942F020E94360281E47D
S11302600E94BC00789480916701813021F40E943F
S11302709F03109267012FEF83ED90E3215080409C
S11302809040E1F700C00000EECFFC0170E09B015C
S1130290215031091616170674F480E0AF01022EBE
S11302A002C0559547950A94E2F74170842721507E
S11302B03109A0F701C080E090E0089580916901C0
S11302C0823059F480916E0168E090E00E9445010B
S11302D00E94C50010926901089580916E010E94E8
S11302E0C500809169018F5F8093690108950F9320
S11302F01F93CF93209169012330E9F4C0916A01DF
S113030000915D0110915E0160E1C8010E94450108
S11303102C2F30E08217930739F410936C0100936B
S11303206B0181E08093670110925E0110925D0180
S1130330109269011FC080916A0190E0422F50E041
S113034041505109440F551F440F551F440F551F69
S113035002C0880F991F4A95E2F740915D015091C0
S11303605E01840F951F90935E0180935D012F5F62
S113037020936901CF911F910F910895CF93DF933B
S1130380809169018230A9F4C0916A01D0915C0125
S113039068E08D2F90E00E9445012C2F30E08217F9
S11303A0930721F4D093680110925C0110926901C3
S11303B007C090916A0190935C018F5F80936901FB
S11303C0DF91CF91089580916D01813039F018F05B
S11303D0823039F008950E945E0108950E947701E9
S11303E008950E94BE01089584B5806884BD84B5D3
S11303F0806284BD84B58B6084BD17BC18BC85B590
S1130400826085BD0895109280001092850010923C
S113041084008FE99FE09093890080938800E1E84D
S1130420F0E0808189608083EFE6F0E08081826083
S113043080830895E0EBF0E0808180688083808190
S11304408062808380818B6080831092B3001092DD
S1130450B400E1EBF0E080818260808308950E9423
S1130460F4010E9403020E941A020895EFE6F1E0EB
S113047011821082138212821582148217821682CC
S11304805C98089587B590E020916F0130917001D8
S1130490821793074CF487B58D3218F48DE287BD2B
S11304A003C087B58F5F87BD87B590E020916F014A
S11304B0309170012817390744F487B58E3220F043
S11304C087B5815087BD01C017BC88B590E02091E5
S11304D0710130917201821793074CF488B58D3203
S11304E018F48DE288BD03C088B58F5F88BD88B5D8
S11304F090E020917101309172012817390744F47A
S113050088B58E3220F088B5815088BD089518BC16
S113051008958091B30090E02091730130917401AB
S1130520821793076CF48091B3008D3220F48DE22E
S11305308093B30005C0E3EBF0E080818F5F80839C
S11305408091B30090E020917301309174012817D9
S1130550390764F48091B3008E3230F0E3EBF0E0BD
S113056080818150808302C01092B3008091B400D6
S113057090E02091750130917601821793076CF415
S11305808091B4008D3220F48DE28093B40005C0D4
S1130590E4EBF0E080818F5F80838091B40090E091
S11305A020917501309176012817390764F4809100
S11305B0B4008E3230F0E4EBF0E08081815080832F
S11305C008951092B40008955C9AEFE6F1E08FEF7D
S11305D090E091838083938382830895EFE6F1E032
S11305E011821082138212825C980895EFE6F1E082
S11305F0158214821782168208954F9902C0189B9F
S11306000EC00E94F602E3EBF0E0A4EBB0E08081C0
S1130610882319F08C918111FACF5F982898EFE61E
S1130620F1E08FEF90E09583848397838683089528
S11306304F9B02C018990EC00E94F602E3EBF0E053
S1130640A4EBB0E08081882319F08C918111FACF5A
S11306505F9A289AEFE6F1E08FEF90E09583848328
S1130660978386830895CF93DF93EC010F964F977A
S113067008F058C04F9B02C0189B0EC00E94F6029F
S1130680E3EBF0E0A4EBB0E08081882319F08C91D7
S11306908111FACF5F9A2898DD231CF1209177010C
S11306A0309178018091770190917801EFE6F1E043
S11306B08D976FE070E00E945A046C9FC0016D9F9B
S11306C0900D7C9F900D1124281B390B35832483B6
S11306D08091770190917801978386831C161D067B
S11306E05CF18091770190917801209177013091AC
S11306F07801EFE6F1E08D976FE070E00E945A0414
S11307006C9FC0016D9F900D7C9F900D1124280F4C
S1130710391F3783268380917701909178019583DF
S113072084830AC0C031D10514F00E941803C13F6C
S1130730DF4F14F40E94FD02DF91CF9108958FEFF3
S113074090E09093780180937701809168018230E2
S113075099F028F4882341F0813059F008958330CA
S113076089F08430B1F008950E94F6020E94EE02EE
S113077008950E94F602089582EB90E09093780128
S11307808093770180916B0190916C010E943303F7
S113079008950E94E40284E291E00E948204089594
S11307A01F920F920FB60F9211242F933F934F93E2
S11307B05F936F937F938F939F93AF93BF93EF93C5
S11307C0FF9380916101909162010196909362017F
S11307D08093610180916801813049F080915F01CB
S11307E09091600101969093600180935F019BB1A9
S11307F084E089278BB980916101909162018536EB
S1130800910544F00E9442020E9489021092620102
S11308101092610180915F01909160018139914052
S113082024F09BB184E089278BB9FF91EF91BF91AC
S1130830AF919F918F917F916F915F914F913F9174
S11308402F910F900FBE0F901F901895CF93C82F24
S11308508A3019F48DE00E942604E0ECF0E08081F7
S113086085FFFDCFC093C600CF910895E0ECF0E082
S113087080818823ECF78091C60008951092C5000A
S113088087E68093C400E0ECF0E080818D7F808374
S113089086E08093C20088E18093C1000895E9E76F
S11308A0F1E08EE091E09383828380E091E0918394
S11308B08083089597FB072E16F4009407D077FDE4
S11308C009D00E946E0407FC05D03EF490958195F2
S11308D09F4F0895709561957F4F0895AA1BBB1B88
S11308E051E107C0AA1FBB1FA617B70710F0A61B2C
S11308F0B70B881F991F5A95A9F780959095BC014D
S1130900CD0108950F931F93CF93DF93E0917B0163
S1130910F0917C01238121FF1BC08C01D0E0C0E059
S1130920F80181918F0160917B0170917C01DB0161
S11309301896ED91FC911997882331F00995892B2C
S113094079F3DFEFCFEFECCF8AE00995892B19F02B
S11309508FEF9FEF02C08D2F9C2FDF91CF911F91BE
S10B09600F910895F894FFCFF4
S11309680000000100000000000036040000000040
S113097800020000000026040000000042726F6BB1
S1130988656E2100736F7274696E67212100505778
S11309984D206D31202564202050574D206D322084
S11309A82564202050574D206D33202564202020B5
S10F09B850574D206D342025640A0000C7
S9030000FC
