:100000000C94B5000C94D2000C94D2000C94D20045
:100010000C94D2000C94D2000C94D2000C94D20018
:100020000C94D2000C94D2000C94D2000C94D20008
:100030000C94D2000C94D2000C94D2000C94D200F8
:100040000C94D2000C94D2000C94D2000C94D200E8
:100050000C94D2000C94D2000C94D2000C94D200D8
:100060000C94D2000C94D2006E616E00696E660032
:1000700000407A10F35A00A0724E18090010A5D45F
:10008000E80000E87648170000E40B54020000CABC
:100090009A3B000000E1F505000080969800000002
:1000A00040420F000000A086010000001027000061
:1000B0000000E803000000006400000000000A00E7
:1000C000000000000100000000002C76D888DC67EA
:1000D0004F0823DFC1DFAE59E1B1B796E5E3E45342
:1000E000C63AE651997696E8E6C28426EB898C9B5F
:1000F00062ED407C6FFCEFBC9C9F40F2BAA56FA5FF
:10010000F490055A2AF75C936B6CF9676DC11BFC80
:10011000E0E40D47FEF520E6B500D0ED902E03009B
:10012000943577050080841E080000204E0A0000E8
:1001300000C80C333333330F986E12831141EF8DA7
:100140002114893BE65516CFFEE6DB18D1844B38E7
:100150001BF77C1D901DA4BBE424203284725E2218
:100160008100C9F124ECA1E53D2711241FBECFEF8A
:10017000D8E0DEBFCDBF12E0A0E0B1E0EAEFF8E1E9
:1001800002C005900D92A232B107D9F722E0A2E297
:10019000B2E001C01D92A832B207E1F70E94D70079
:1001A0000C947B0C0C9400000E9486040895CF935D
:1001B000DF93CDB7DEB7A4970FB6F894DEBF0FBEBE
:1001C000CDBF0E94D400BE016F5F7F4F80E091E001
:1001D0000E94E802892B09F493C089811F928F93B2
:1001E00085E791E09F938F930E94070C8A811F926D
:1001F0008F9388E891E09F938F930E94070C8E81E4
:100200008F938D818F938C818F938B818F9387E9CF
:1002100091E09F938F930E94070C8B851F928F9381
:1002200087EA91E09F938F930E94070C8C851F9221
:100230008F938CEA91E09F938F930E94070C8D859A
:100240001F928F938FEB91E09F938F930E94070CE7
:1002500089898F9388898F938F858F938E858F93CC
:100260008EEC91E09F938F930E94070C0FB6F89449
:10027000DEBF0FBECDBF8A8D1F928F938EED91E0B2
:100280009F938F930E94070C8D898F938C898F93F6
:100290008B898F938A898F938A858F9389858F9392
:1002A00088858F938F818F9382EE91E09F938F93B8
:1002B0000E94070C898D8F93888D8F938F898F93E0
:1002C0008E898F9386EF91E09F938F930E94070C06
:1002D0008B8D1F928F9386E092E09F938F930E9465
:1002E000070C8C8D1F928F9383E192E09F938F93E5
:1002F0000E94070C0FB6F894DEBF0FBECDBF08C03A
:100300008CE192E09F938F930E94070C0F900F90C7
:1003100080E090E0A4960FB6F894DEBF0FBECDBF8C
:10032000DF91CF910895FC01168217821086118605
:10033000128213821482158211821082118A128A0B
:10034000138A148A158616861786108A14861386D1
:10035000138E128E10A211A212A213A2148E158E49
:10036000168E178E0895FC012081243261F52181BB
:100370002A3259F1DC01129660E070E041E050E071
:1003800030E020533109622773274F5F5F4F2D9173
:100390002A32B1F71EC0422F50E040535109840F5A
:1003A000951F3FEB320F363028F430E027533109E8
:1003B000820F931F9C012056310981E026173707D1
:1003C000D1F080E0089580E0089560E070E041E0C1
:1003D00050E0FC01E40FF51F818190E0C097829509
:1003E0009295907F9827807F9827228130ED320F59
:1003F0003A3088F2D6CF0895CF93DF93CDB7DEB7EA
:1004000064970FB6F894DEBF0FBECDBFFC0120810C
:10041000243209F055C0DC011196FE0170969E0150
:100420002B5E3F4F8D919FEB980F9A3108F480839C
:100430003196E217F307B1F785E0E3E6F1E0DE017C
:100440001B9601900D928A95E1F785E0E9E6F1E0CF
:10045000DE01169601900D928A95E1F785E0EFE6B0
:10046000F1E0DE01119601900D928A95E1F745E0E9
:1004700050E0BE01655F7F4FCE0140960E94B20BF7
:10048000892BC1F045E050E0BE016A5F7F4FCE018D
:1004900040960E94B20B892B79F045E050E0BE01F6
:1004A0006F5F7F4FCE0140960E94B20B892B31F0D7
:1004B00080E007C081E005C082E003C081E001C0A8
:1004C00080E064960FB6F894DEBF0FBECDBFDF911B
:1004D000CF910895CF92DF92EF92FF92CF93DF9367
:1004E000EC01698170E080E090E00E94DE0520E090
:1004F00030E040E752E40E943B056B017C016881DB
:1005000070E080E090E00E94DE059B01AC01C70135
:10051000B6010E94CF046B017C016A817B818C81D2
:100520009D810E94DC0520E03BE147EB5AE40E94FC
:100530003B059B01AC01C701B6010E94CF046E834D
:100540007F83888799876C8570E080E090E00E94C7
:10055000DE0520E030E040E752E40E943B056B01FD
:100560007C016B8570E080E090E00E94DE059B01DD
:10057000AC01C701B6010E94CF046B017C016D85FF
:100580007E858F8598890E94DC0520E03BE147EB62
:100590005AE40E943B059B01AC01C701B6010E94D1
:1005A000CF04698B7A8B8B8B9C8B20E034E244E701
:1005B00059E40E946A060E94AD056D8B7E8B8F8B7D
:1005C000988FDF91CF91FF90EF90DF90CF900895BB
:1005D0002F923F924F925F926F927F928F929F9253
:1005E000AF92BF92CF92DF92EF92FF920F931F9341
:1005F000CF93DF9300D000D000D0CDB7DEB78C0111
:100600007B010E94B301882309F45EC1C8010E94E6
:10061000FC018983C7010E9493012981213009F0DF
:100620004DC1D80116968C918A3209F447C10F2E1C
:10063000F0E14F2EF7E25F2E612C712CF02DBAE025
:10064000BC83E4E6E983C12C0F2EF0E18F2EF7E2A4
:100650009F2EA12CB12CF02DFAE0FB832AE02A83F7
:10066000D12C0F2EFAE03F2EF02D1E8296E00F2E99
:10067000FDEC2F2EF02D9D838C3231F4BE81BF5FB7
:10068000BE83ED81EF5FED83FE81F43009F47CC021
:1006900030F4F23071F0F33009F468C005C12E81F6
:1006A000263009F4DDC008F4CEC02D3009F4E3C0D3
:1006B000FBC0F8018D81E80FF11D8081982F9D7F8F
:1006C0009C3209F4F1C091E09D1588F08053D70168
:1006D0009C91BA818B9F900D1124D7019C93BA8174
:1006E000B29D812D11248695869586958A838EEFFD
:1006F0008D0D8230A0F490819053D70111968C918A
:10070000BB819B9F800D1124D70111968C93BB81D7
:10071000B29D812D11248695869586958B8323E045
:100720002D1518F5A081B0E0D097A50194010E9485
:10073000760AD70112962D913D914D915C911597B6
:10074000DC01CB01820F931FA41FB51FF701828329
:100750009383A483B583C501B4012AE030E040E06F
:1007600050E00E94540A49015A01D394F8012D81A6
:10077000E20FF11D80819FEB980F9A3108F094C031
:10078000D7011A968C9390C0F801BD81EB0FF11D33
:100790008081982F9D7F9C3209F486C022E02C1521
:1007A00098F08053D7011B969C91B9818B9F900D37
:1007B0001124D7011B969C93B981B29D812D1124E0
:1007C00086958695869589838DEF8C0D8230A0F471
:1007D00090819053D7011C968C91BC819B9F800D7A
:1007E0001124D7011C968C93BC81B29D812D1124BC
:1007F0008695869586958C8324E02C1518F5A08126
:10080000B0E0D097A30192010E94760AD7011D960D
:100810002D913D914D915C915097DC01CB01820F60
:10082000931FA41FB51FF70185879687A787B08BF5
:10083000C301B2012AE030E040E050E00E94540AD7
:1008400029013A01C394F8012D81E20FF11D808145
:100850009FEB980F9A3140F5D70159968C9324C09D
:10086000F801BD81EB0FF11D808180538630E0F4EB
:10087000F701828F19C0F8012D81E20FF11D8081EF
:10088000982F9D7F9C3281F08053D7015B969C917D
:100890005B97839D900D11245B969C93329C312C29
:1008A0001124369436943694BD81BF5FBD83F80120
:1008B000EB0FF11D80818A3209F0DECEC7010E9464
:1008C0006A0281E090E002C080E090E026960FB6D8
:1008D000F894DEBF0FBECDBFDF91CF911F910F9176
:1008E000FF90EF90DF90CF90BF90AF909F908F9050
:1008F0007F906F905F904F903F902F900895509809
:100900005898519A59980E94AA0408958FEE80939E
:10091000640084B114B885B19FEF95B987B1807830
:1009200087B988B18F6788B98AB11AB88BB19BB97A
:1009300040E060E881E690E00E94A30413BE15BE8B
:100940000E947F0408952FB7F894FC0160834083D0
:100950002FBF0895E4E6F0E080818D7F80831092C0
:10096000C50083E38093C4001092C00088E980939F
:10097000C10085E591E0909325028093240280E0F8
:100980000895E0ECF0E0908195FFFDCF8093C600E4
:1009900008950E94C10480E090E008955058BB275C
:1009A000AA270E94E6040C9430060E94220638F022
:1009B0000E94290620F039F49F3F19F426F40C9484
:1009C0001F060EF4E095E7FB0C941906E92F0E9430
:1009D000410658F3BA17620773078407950720F09A
:1009E00079F4A6F50C9463060EF4E0950B2EBA2F5D
:1009F000A02D0B01B90190010C01CA01A001112425
:100A0000FF27591B99F0593F50F4503E68F11A16D0
:100A1000F040A22F232F342F4427585FF3CF469561
:100A200037952795A795F0405395C9F77EF41F1683
:100A3000BA0B620B730B840BBAF09150A1F0FF0F4D
:100A4000BB1F661F771F881FC2F70EC0BA0F621F39
:100A5000731F841F48F4879577956795B795F79529
:100A60009E3F08F0B0CF9395880F08F09927EE0FBE
:100A70009795879508950E944F050C9430060E9423
:100A8000290658F00E94220640F029F45F3F29F021
:100A90000C94190651110C9464060C941F060E94C4
:100AA000410668F39923B1F3552391F3951B550B38
:100AB000BB27AA2762177307840738F09F5F5F4F31
:100AC000220F331F441FAA1FA9F335D00E2E3AF070
:100AD000E0E832D091505040E695001CCAF72BD088
:100AE000FE2F29D0660F771F881FBB1F26173707D9
:100AF0004807AB07B0E809F0BB0B802DBF01FF270B
:100B000093585F4F3AF09E3F510578F00C941906C8
:100B10000C9464065F3FE4F3983ED4F38695779592
:100B20006795B795F7959F5FC9F7880F911D9695C3
:100B3000879597F90895E1E0660F771F881FBB1F1F
:100B4000621773078407BA0720F0621B730B840BCC
:100B5000BA0BEE1F88F7E09508950E94490688F0C9
:100B60009F5798F0B92F9927B751B0F0E1F0660F71
:100B7000771F881F991F1AF0BA95C9F714C0B130B2
:100B800091F00E946306B1E008950C946306672F0C
:100B9000782F8827B85F39F0B93FCCF386957795E1
:100BA0006795B395D9F73EF49095809570956195CA
:100BB0007F4F8F4F9F4F0895E89409C097FB3EF4F5
:100BC00090958095709561957F4F8F4F9F4F99239A
:100BD000A9F0F92F96E9BB279395F6958795779518
:100BE0006795B795F111F8CFFAF4BB0F11F460FFD8
:100BF0001BC06F5F7F4F8F4F9F4F16C0882311F030
:100C000096E911C0772321F09EE8872F762F05C043
:100C1000662371F096E8862F70E060E02AF09A95DE
:100C2000660F771F881FDAF7880F9695879597F9D3
:100C3000089597F99F6780E870E060E008959FEF5E
:100C400080EC089500240A94161617061806090663
:100C5000089500240A941216130614060506089532
:100C6000092E0394000C11F4882352F0BB0F40F4BA
:100C7000BF2B11F460FF04C06F5F7F4F8F4F9F4FFA
:100C8000089557FD9058440F551F59F05F3F71F07C
:100C90004795880F97FB991F61F09F3F79F08795E3
:100CA0000895121613061406551FF2CF4695F1DF6C
:100CB00008C0161617061806991FF1CF86957105FC
:100CC000610508940895E894BB2766277727CB0130
:100CD00097F908950E947D060C9430060E94220622
:100CE00038F00E94290620F0952311F00C94190683
:100CF0000C941F0611240C9464060E94410670F3A4
:100D0000959FC1F3950F50E0551F629FF001729FB0
:100D1000BB27F00DB11D639FAA27F00DB11DAA1FBF
:100D2000649F6627B00DA11D661F829F2227B00D0C
:100D3000A11D621F739FB00DA11D621F839FA00D97
:100D4000611D221F749F3327A00D611D231F849FE7
:100D5000600D211D822F762F6A2F11249F5750403E
:100D60009AF0F1F088234AF0EE0FFF1FBB1F661FB9
:100D7000771F881F91505040A9F79E3F510580F082
:100D80000C9419060C9464065F3FE4F3983ED4F388
:100D9000869577956795B795F795E7959F5FC1F726
:100DA000FE2B880F911D9695879597F90895A0E1E0
:100DB000B0E0EDEDF6E00C947E0A7C011B016A01C7
:100DC000FC0117821682838181FF44C39E012F5F3D
:100DD0003F4F3901F7019381F10193FD859193FF15
:100DE00081911F01882309F431C3853239F493FDC1
:100DF000859193FF81911F01853239F4B70190E00D
:100E00000E94CB0B56016501E5CF10E0512C912CCF
:100E1000FFE1F915D8F08B3279F038F4803279F0AF
:100E20008332A1F4F92DF0612EC08D3261F0803350
:100E300069F4292D21602DC0392D3260932E892D22
:100E40008460982E2AC0E92DE86015C097FC2DC05B
:100E500020ED280F2A3088F496FE06C03AE0139F52
:100E6000200D1124122F19C08AE0589E200D112444
:100E7000522EE92DE0629E2E10C08E3231F496FC87
:100E8000E5C2F92DF0649F2E08C08C3621F4292D7F
:100E90002068922E02C0883641F4F10193FD8591BD
:100EA00093FF81911F018111B3CF9BEB980F93307A
:100EB00020F4992D9061805E07C09BE9980F9330D4
:100EC00008F066C1992D9F7E96FF16E09F73992EBC
:100ED000853619F49064992E08C0863621F4392F8E
:100EE0003068932E02C01111115097FE07C01C33B9
:100EF00050F444244394410E27E00BC0183038F0DE
:100F000027E017E005C027E09CE3492E02C0212F0F
:100F1000412C560184E0A80EB11CF601608171815C
:100F200082819381042DA3010E94CF0A6C01F98173
:100F3000FC87F0FF02C0F3FF06C091FC06C092FEE2
:100F400006C000E205C00DE203C00BE201C000E0F4
:100F50008C858C7019F001115AC29BC297FE10C08B
:100F60004C0CFC85F4FF04C08A81813309F44A9457
:100F7000141474F528E0241578F588E0482E2CC068
:100F800096FC2AC0812F90E08C159D059CF03CEFCB
:100F9000C3163FEFD30674F0892D8068982E0AC0DF
:100FA000E2E0F0E0EC0FFD1FE10FF11D80818033E6
:100FB00019F411501111F4CF97FE0EC0442443943C
:100FC000410E812F90E0C816D9062CF41C1904C0DC
:100FD0004424439401C010E097FE06C01C141D0475
:100FE00034F4C601019605C085E090E002C081E0BE
:100FF00090E001110196112331F0212F30E02F5F95
:101000003F4F820F931F252D30E08217930714F472
:10101000581A01C0512C892D897049F4552039F096
:10102000B70180E290E00E94CB0B5A94F7CF0023E7
:1010300029F0B701802F90E00E94CB0B93FC09C0F0
:10104000552039F0B70180E390E00E94CB0B5A9411
:10105000F7CF97FE4CC04601D7FE02C0812C912CE1
:10106000C60188199909F301E80FF91FFE87ED877A
:10107000960124193109388B2F87012F10E0119523
:10108000019511093FEF8316930629F4B7018EE20B
:1010900090E00E94CB0BC814D9044CF08F8598893E
:1010A0008815990524F4ED85FE85818101C080E3D2
:1010B000F1E08F1A91082D853E852F5F3F4F3E87C7
:1010C0002D87801691062CF0B70190E00E94CB0B83
:1010D000D9CFC814D90441F49A81963320F49533BA
:1010E00019F43C8534FF81E3B70190E04EC08A815A
:1010F000813319F09C859F7E9C87B70190E00E9408
:10110000CB0B111105C094FC18C085E690E017C008
:10111000B7018EE290E00E94CB0B1E5F82E001E0FF
:10112000080FF301E80FF11D8081B70190E00E94E4
:10113000CB0B802F0113F3CFE6CF85E490E0B7010E
:101140000E94CB0BD7FC06C0C114D10441F4EC853E
:10115000E4FF05C0D194C194D1088DE201C08BE2B7
:10116000B70190E00E94CB0B80E32AE0C216D104C5
:101170002CF08F5FFAE0CF1AD108F7CFB70190E0DB
:101180000E94CB0BB701C601C0960E94CB0B54C185
:10119000833631F0833779F0833509F056C020C0AB
:1011A000560132E0A30EB11CF6018081898301E073
:1011B00010E0630112C05601F2E0AF0EB11CF6015F
:1011C000C080D18096FE03C0612F70E002C06FEF37
:1011D0007FEFC6010E94C00B8C01F92DFF7714C070
:1011E000560122E0A20EB11CF601C080D18096FE0D
:1011F00003C0612F70E002C06FEF7FEFC6010E9455
:10120000A70B8C01F92DF0689F2EF3FD1AC0852DD8
:1012100090E008171907A8F4B70180E290E00E9457
:10122000CB0B5A94F4CFF60197FC859197FE8191F0
:101230006F01B70190E00E94CB0B51105A940150FE
:1012400011090115110579F7F7C0843611F08936B7
:1012500061F5560197FE09C024E0A20EB11CF6010B
:1012600060817181828193810AC0F2E0AF0EB11C6E
:10127000F60160817181072E000C880B990BF92D06
:10128000FF769F2E97FF09C0909580957095619588
:101290007F4F8F4F9F4FF0689F2E2AE030E0A301D1
:1012A0000E941D0CC82EC6183FC0092D853721F499
:1012B0000F7E2AE030E01DC0097F8F3691F018F4D0
:1012C000883559F0C3C0803719F0883711F0BEC097
:1012D000006104FF09C0046007C094FE08C00660F6
:1012E00006C028E030E005C020E130E002C020E187
:1012F00032E0560107FF09C084E0A80EB11CF601D8
:10130000608171818281938108C0F2E0AF0EB11CCF
:10131000F6016081718180E090E0A3010E941D0CC4
:10132000C82EC6180F77902E96FE0BC0092D0E7F83
:10133000C11650F494FE0AC092FC08C0092D0E7E1E
:1013400005C0DC2C092D03C0DC2C01C0D12E04FF0C
:101350000DC0FE01EC0DF11D8081803311F4097E7A
:1013600009C002FF06C0D394D39404C0802F8678AE
:1013700009F0D39403FD11C000FF06C01C2DD51445
:1013800080F4150D1D190DC0D51458F4B70180E275
:1013900090E00E94CB0BD394F7CFD51410F45D18D6
:1013A00001C0512C04FF10C0B70180E390E00E94FF
:1013B000CB0B02FF17C001FD03C088E790E002C01D
:1013C00088E590E0B7010CC0802F867859F001FFC6
:1013D00002C08BE201C080E207FD8DE2B70190E020
:1013E0000E94CB0BC11638F4B70180E390E00E9455
:1013F000CB0B1150F7CFCA94F301EC0DF11D808196
:10140000B70190E00E94CB0BC110F5CF15C0F4E0FE
:10141000F51560F584E0581A93FE1FC0011127C02E
:101420002C8523FF2AC008E610E0392D3071932E59
:10143000F8018491811124C0552009F4E4CCB7014E
:1014400080E290E00E94CB0B5A94F6CFF7018681A0
:10145000978126C08FEF9FEF23C0B70180E290E015
:101460000E94CB0B5A945110F8CFD8CF512CB70112
:10147000802F90E00E94CB0BD3CF0CE610E0D5CFAD
:1014800091108052B70190E00E94CB0B0F5F1F4F6D
:10149000CFCF23E0251510F483E0BDCF512CC0CF72
:1014A0006096E2E10C949A0AA1E21A2EAA1BBB1BD9
:1014B000FD010DC0AA1FBB1FEE1FFF1FA217B30720
:1014C000E407F50720F0A21BB30BE40BF50B661F36
:1014D000771F881F991F1A9469F7609570958095FA
:1014E00090959B01AC01BD01CF010895B7FF0C940D
:1014F000B50A0E94B50A821B930B08952F923F9262
:101500004F925F926F927F928F929F92AF92BF9213
:10151000CF92DF92EF92FF920F931F93CF93DF93BF
:10152000CDB7DEB7CA1BDB0B0FB6F894DEBF0FBE1C
:10153000CDBF09942A88398848885F846E847D8469
:101540008C849B84AA84B984C884DF80EE80FD806B
:101550000C811B81AA81B981CE0FD11D0FB6F894E1
:10156000DEBF0FBECDBFED0108950E94C00AA59F4A
:10157000900DB49F900DA49F800D911D112408958E
:10158000A29FB001B39FC001A39F700D811D1124C4
:10159000911DB29F700D811D1124911D0895283059
:1015A00008F027E03327DA01990F311D87FD91609C
:1015B00000966105710539F432602E5F3D9330E38A
:1015C0002A95E1F708959F3F30F080387105610555
:1015D00009F03C5F3C5F3D93913008F08068911DBD
:1015E000DF93CF931F930F93FF92EF92192F987F62
:1015F0009695E92F96959695E90FFF27E653FF4FAD
:1016000099273327EE24FF24A701E70105900894CA
:10161000079428F4360FE71EF81E491F511D660F68
:10162000771F881F991F0694A1F70590079428F447
:10163000E70EF81E491F561FC11D770F881F991FFF
:10164000661F0694A1F70590079428F4F80E491F29
:10165000561FC71FD11D880F991F661F771F06943D
:10166000A1F70590079420F4490F561FC71FD81FF4
:10167000990F661F771F881F0694A9F7849110950C
:10168000177041F0D695C79557954795F794E7940D
:101690001A95C1F7E0E7F0E068941590159135913F
:1016A0006591959105907FE27395E118F10A430BDE
:1016B000560BC90BD009C0F7E10CF11E431F561F92
:1016C000C91FD01D7EF4703311F48A95E6CFE894DB
:1016D000015030F0080F0AF40027021708F4202FF9
:1016E0002395022F7A3328F079E37D932A95E9F741
:1016F00010C07D932A9589F606949795679537953E
:1017000017951794E118F10A430B560BC90BD00932
:1017100098F023957E9173957A3308F070E37C936B
:101720002013B8F77E9170617D9330F0839571E35B
:101730007D9370E32A95E1F71124EF90FF900F91CC
:101740001F91CF91DF91992787FD90950895FC0116
:101750000590615070400110D8F7809590958E0FDC
:101760009F1F0895FB01DC014150504030F08D91E6
:101770000190801919F40020B9F7881B990B08957E
:10178000FC016150704001900110D8F78095909550
:101790008E0F9F1F08950F931F93CF93DF93FB012D
:1017A000238121FD03C08FEF9FEF2CC022FF16C0C5
:1017B00046815781248135814217530744F4A08123
:1017C000B1819D012F5F3F4F318320838C93268110
:1017D00037812F5F3F4F3783268314C08B01EC0185
:1017E000FB010084F185E02D0995892BE1F6D801F4
:1017F00016968D919C911797019617969C938E93B0
:101800001697CE01DF91CF911F910F910895A0E01F
:10181000B0E0EDE0FCE00C948E0AAE014B5F5F4F50
:10182000FA0161917191AF0180912402909125029A
:101830000E94D706E2E00C94AA0AFA01AA272830EF
:1018400051F1203181F1E8946F936E7F6E5F7F4F8D
:101850008F4F9F4FAF4FB1E03ED0B4E03CD0670F09
:10186000781F891F9A1FA11D680F791F8A1F911D5C
:10187000A11D6A0F711D811D911DA11D20D009F4AC
:1018800068943F912AE0269F11243019305D3193EE
:10189000DEF6CF010895462F4770405D4193B3E0D7
:1018A0000FD0C9F7F6CF462F4F70405D4A3318F07E
:1018B000495D31FD4052419302D0A9F7EACFB4E02F
:1018C000A6959795879577956795BA95C9F70097E7
:1018D0006105710508959B01AC010A2E0694579588
:1018E000479537952795BA95C9F7620F731F841FDF
:0A18F000951FA01D0895F894FFCF86
:1018FA0024474E4747412C3134343230342E30306D
:10190A002C353435342E37313934322C4E2C303094
:10191A003934362E38333232312C452C312C31328F
:10192A002C302E39342C32312E312C4D2C34342E8D
:10193A00312C4D2C2C2A373000000000000000000A
:10194A0000000000000000000200000000C90400BE
:10195A000000004750474741004750565447004748
:10196A004E474741004C61745F4465677265653A4A
:10197A0009202564200920004C61745F4D696E3A84
:10198A00092025642009004C61745F4465633A09A3
:10199A0020256C752009002563090A004C6F6E5FCB
:1019AA004465677265653A09202564200920004C60
:1019BA006F6E5F4D696E3A092025642009004C6FED
:1019CA006E5F4465633A0920256C7520090025631A
:1019DA000A004C61743A20256C6609204C6F6E3AF5
:1019EA0020256C660A004C4F4E5F46696E616C3A60
:1019FA0020256C750A005175616C6974793A202545
:101A0A00640A004167653A2025640A004E6F476FF1
:021A1A002100A9
:00000001FF
