S01400004D6F746F72436F6E74726F6C2E737265631E
S11300000C9434000C9451000C9451000C94510045
S11300100C9451000C9451000C9451000C94510018
S11300200C9451000C94F8010C9451000C94510060
S11300300C9451000C9451000C9451000C945100F8
S11300400C9451000C9451000C9451000C945100E8
S11300500C9451000C9453000C9451000C945100D6
S11300600C94C6000C94510011241FBECFEFD8E0AD
S1130070DEBFCDBF11E0A0E0B1E0E6E1FBE002C0ED
S113008005900D92A234B107D9F721E0A2E4B1E0C2
S113009001C01D92AA35B207E1F70E9413010C9426
S11300A089050C9400001F920F920FB60F92112431
S11300B02F933F934F935F936F937F938F939F936C
S11300C0AF93BF93EF93FF9380917C00813481F0D1
S11300D018F4803431F020C0823489F08334B1F0D4
S11300E01BC08FE18093490181E08093480118C0CF
S11300F080E28093490182E08093480111C081E24B
S11301008093490183E0809348010AC082E280938E
S113011049011092480104C08DE191E00E949102CE
S1130120FF91EF91BF91AF919F918F917F916F91CB
S11301305F914F913F912F910F900FBE0F901F90A1
S11301401895CF93C82F80914C01811106C0C0939C
S11301504E0181E080934C0104C0C0934D010E9484
S11301609E01C0934D01CF9108950E949E018091FC
S11301704D018093BB0008950E949E0180914D0122
S11301808093BB00089580934D0108951F920F92B0
S11301900FB60F9211242F933F934F935F936F9356
S11301A07F938F939F93AF93BF93EF93FF9380912C
S11301B0B900887F803849F018F48823D1F01FC033
S11301C0883A59F0883B79F01AC085EC8093BC00DA
S11301D08091BB000E94A10015C00E94BC0085EC68
S11301E08093BC000FC00E94B50085EC8093BC00D6
S11301F009C0ECEBF0E0108285EC808303C085EC51
S11302008093BC00FF91EF91BF91AF919F918F912B
S11302107F916F915F914F913F912F910F900FBEFE
S11302200F901F9018950E945F020E9470020E9416
S1130230F101529A5A9878948FE891E00197F1F776
S113024000C00000F9CFFC0170E09B01215031098E
S11302501616170674F480E0AF01022E02C05595FD
S113026047950A94E2F74170842721503109A0F799
S113027001C080E090E0089580914C01813059F4F0
S11302808091000168E090E00E9423010E94C30075
S113029010924C010895809100010E94C300809146
S11302A04C018F5F80934C010895CF9380914C0152
S11302B08330F9F4C0914D0160E180E090E00E9448
S11302C023012C2F30E08217930781F410925101FF
S11302D0109250011F921F9285E291E09F938F9399
S11302E00E947B020F900F900F900F9010924C0180
S11302F023C020914D0130E090E00197880F991FB1
S1130300880F991F880F991FA90102C0440F551F18
S11303108A95E2F7CA019F934F9380E391E09F93FC
S11303208F930E947B0280914C018F5F80934C01DC
S11303300F900F900F900F90CF91089580914E01E0
S1130340882319F0813021F008950E943C0108951A
S11303500E945501089584B5806884BD84B5806287
S113036084BD84B58B6084BD8FEF87BD88BD85B5A2
S1130370826085BD0895E0E8F0E080818068808334
S113038080818062808380818B60808380E395E7B5
S1130390909389008093880090938B0080938A00C7
S11303A0E1E8F0E08081856080830895E0EBF0E08F
S11303B080818068808380818062808380818B607B
S11303C0808380E88093B3008093B400E1EBF0E095
S11303D0808182608083E0E7F0E0808181608083B7
S11303E008950E94AB010E94BB010E94D6010895AA
S11303F01F920F920FB60F9211242F938F939F93F6
S11304008091460190914701019690934701809312
S113041046018091440190914501019690934501D4
S113042080934401809142019091430101969093FD
S1130430430180934201809146019091470187389E
S1130440914024F01092470110924601809144019A
S113045090914501059724F01092450110924401B2
S113046080914201909143018931964044F09BB1BF
S113047084E089278BB910924301109242019F9125
S11304808F912F910F900FBE0F901F901895CF93BF
S1130490C82F8A3019F48DE00E944702E0ECF0E0A6
S11304A0808185FFFDCFC093C600CF910895E0EC15
S11304B0F0E080818823ECF78091C60008951092C3
S11304C0C50087E68093C400E0ECF0E080818D7F76
S11304D0808386E08093C20088E18093C100089500
S11304E0E4E5F1E08FE091E09383828381E091E0A1
S11304F0918380830895A0E0B0E0E1E8F2E00C94F9
S11305006205AE014B5F5F4FFA0161917191AF01DA
S113051080915601909157010E94C102E2E00C942F
S11305207E050F931F93CF93DF93E0915601F091D3
S11305305701238121FF1BC08C01D0E0C0E0F801EA
S113054081918F016091560170915701DB011896DA
S1130550ED91FC911997882331F00995892B79F352
S1130560DFEFCFEFECCF8AE00995892B19F08FEFFD
S11305709FEF02C08D2F9C2FDF91CF911F910F9180
S11305800895ABE0B0E0E7ECF2E00C9452056C01A6
S11305907B018A01FC0117821682838181FFCCC111
S11305A0CE0101963C01F6019381F70193FD8591FB
S11305B093FF81917F01882309F4BAC1853239F40C
S11305C093FD859193FF81917F01853229F4B601D2
S11305D090E00E94B804E7CF912C212C312CFFE14C
S11305E0F315D8F08B3279F038F4803279F0833215
S11305F0A1F4232D20611DC08D3261F0803369F494
S1130600232D216016C0832D8260382EE32DE460F3
S11306103E2E2AC0F32DF8601DC037FC2DC020EDFE
S1130620280F2A3040F08E32B9F436FC81C1232DD4
S11306302064322E19C036FE06C08AE0989E200D32
S11306401124922E11C0EAE02E9E200D1124222E98
S1130650F32DF0623F2E08C08C3621F4832D806880
S1130660382E02C0883641F4F70193FD859193FF3B
S113067081917F018111B3CF982F9F7D9554933041
S113068028F40C5F1F4F9FE399830DC0833631F02C
S1130690833771F0833509F059C021C0F801808196
S11306A089830E5F1F4F88248394912C530113C0B8
S11306B02801F2E04F0E511CF801A080B18036FEF3
S11306C003C0692D70E002C06FEF7FEFC5010E9487
S11306D0AD044C018201F32DFF773F2E16C0280193
S11306E022E0420E511CF801A080B18036FE03C006
S11306F0692D70E002C06FEF7FEFC5010E94A20474
S11307004C01F32DF0683F2E820133FC1BC0822D77
S113071090E088169906B0F4B60180E290E00E9459
S1130720B8042A94F4CFF50137FC859137FE819102
S11307305F01B60190E00E94B80421102A9421E0E0
S1130740821A91088114910471F7E8C0843611F07B
S1130750893641F5F80137FE07C0608171818281D5
S113076093810C5F1F4F08C060817181072E000CBC
S1130770880B990B0E5F1F4FF32DFF763F2E97FFCB
S113078009C090958095709561957F4F8F4F9F4FCD
S1130790F0683F2E2AE030E0A3010E94F404882E82
S11307A0861845C0853731F4232D2F7EB22E2AE0DA
S11307B030E025C0932D997FB92E8F36C1F018F4FF
S11307C0883579F0B5C0803719F0883721F0B0C08A
S11307D0E92FE061BE2EB4FE0DC0FB2DF460BF2EE8
S11307E009C034FE0AC0292F2660B22E06C028E0B4
S11307F030E005C020E130E002C020E132E0F80141
S1130800B7FE07C060817181828193810C5F1F4FA5
S113081006C06081718180E090E00E5F1F4FA301EC
S11308200E94F404882E8618FB2DFF773F2E36FE97
S11308300DC0232D2E7FA22E891458F434FE0BC034
S113084032FC09C0832D8E7EA82E05C0B82CA32CA3
S113085003C0B82C01C0B92CA4FE0FC0FE01E80DE2
S1130860F11D8081803321F49A2D997EA92E09C02F
S1130870A2FE06C0B394B39404C08A2D867809F00E
S1130880B394A3FC11C0A0FE06C0B21488F4280CD3
S1130890922C9B180EC0B21460F4B60180E290E072
S11308A00E94B804B394F7CFB21418F42B1802C002
S11308B0982C212CA4FE10C0B60180E390E00E9485
S11308C0B804A2FE17C0A1FC03C088E790E002C0F0
S11308D088E590E0B6010CC08A2D867859F0A1FE17
S11308E002C08BE201C080E2A7FC8DE2B60190E079
S11308F00E94B804891438F4B60180E390E00E94A1
S1130900B8049A94F7CF8A94F301E80DF11D80811D
S1130910B60190E00E94B8048110F5CF222009F4BA
S113092042CEB60180E290E00E94B8042A94F6CF49
S1130930F6018681978102C08FEF9FEF2B96E2E14B
S11309400C946E05FC010590615070400110D8F7BD
S1130950809590958E0F9F1F0895FC016150704003
S113096001900110D8F7809590958E0F9F1F0895E0
S11309700F931F93CF93DF93FB01238121FD03C0CA
S11309808FEF9FEF2CC022FF16C046815781248130
S113099035814217530744F4A081B1819D012F5F33
S11309A03F4F318320838C93268137812F5F3F4FC4
S11309B03783268314C08B01EC01FB010084F1858D
S11309C0E02D0995892BE1F6D80116968D919C911D
S11309D01797019617969C938E931697CE01DF91E5
S11309E0CF911F910F910895FA01AA27283051F150
S11309F0203181F1E8946F936E7F6E5F7F4F8F4F4C
S1130A009F4FAF4FB1E03ED0B4E03CD0670F781FAA
S1130A10891F9A1FA11D680F791F8A1F911DA11D8F
S1130A206A0F711D811D911DA11D20D009F46894C8
S1130A303F912AE0269F11243019305D3193DEF670
S1130A40CF010895462F4770405D4193B3E00FD026
S1130A50C9F7F6CF462F4F70405D4A3318F0495D11
S1130A6031FD4052419302D0A9F7EACFB4E0A695F4
S1130A709795879577956795BA95C9F70097610516
S1130A80710508959B01AC010A2E0694579547956C
S1130A9037952795BA95C9F7620F731F841F951F61
S1130AA0A01D08952F923F924F925F926F927F9272
S1130AB08F929F92AF92BF92CF92DF92EF92FF926A
S1130AC00F931F93CF93DF93CDB7DEB7CA1BDB0B16
S1130AD00FB6F894DEBF0FBECDBF09942A883988BB
S1130AE048885F846E847D848C849B84AA84B984C2
S1130AF0C884DF80EE80FD800C811B81AA81B981CE
S1130B00CE0FD11D0FB6F894DEBF0FBECDBFED01E1
S1090B100895F894FFCFE4
S1130B160A00000001000000000000570200000067
S1130B260000020000000047020000000042726F4D
S1130B366B656E21006166746572202564200A0067
S1130B466572726F72207570646174652025642005
S1050B560A008F
S9030000FC
