:100000000C94DB000C9449010C94F8000C94F8005B
:100010000C94F8000C94F8000C94F8000C94F80080
:100020000C94F8000C94F8000C94F8000C94F80070
:100030000C94F8000C94F8000C94F8000C94F80060
:100040000C94F8000C94F8000C9471080C94F800CF
:100050000C94F8000C94F8000C94F8000C94F80040
:100060000C947B040C94F800084AD73B3BCE016EFD
:1000700084BCBFFDC12F3D6C74319ABD56833DDAFF
:100080003D00C77F11BED9E4BB4C3E916BAAAABE0E
:10009000000000803F05A84CCDB2D44EB93836A937
:1000A000020C50B9918688083CA6AAAA2ABE000074
:1000B00000803F006E616E00696E660000407A103D
:1000C000F35A00A0724E18090010A5D4E80000E809
:1000D0007648170000E40B54020000CA9A3B000067
:1000E00000E1F505000080969800000040420F00F6
:1000F0000000A08601000000102700000000E803B7
:10010000000000006400000000000A000000000081
:100110000100000000002C76D888DC674F0823DF40
:10012000C1DFAE59E1B1B796E5E3E453C63AE65113
:10013000997696E8E6C28426EB898C9B62ED407C3A
:100140006FFCEFBC9C9F40F2BAA56FA5F490055AD6
:100150002AF75C936B6CF9676DC11BFCE0E40D47FB
:10016000FEF520E6B500D0ED902E0300943577051E
:100170000080841E080000204E0A000000C80C33D6
:100180003333330F986E12831141EF8D2114893B65
:10019000E65516CFFEE6DB18D1844B381BF77C1DE5
:1001A000901DA4BBE424203284725E228100C9F138
:1001B00024ECA1E53D2711241FBECFEFD8E0DEBF20
:1001C000CDBF11E0A0E0B1E0ECE6F3E202C00590A3
:1001D0000D92A232B107D9F721E0A2E2B1E001C04D
:1001E0001D92AD37B207E1F70E94C8040C94B41118
:1001F0000C94000052988BB18BB9E89AE9E6F0E0D4
:1002000080818360808378940895DC0180917301FC
:10021000909174018130910561F4109274011092F3
:10022000730120E5E3E2F1E001900D922A95E1F7F8
:10023000089580E090E00895109275011092770182
:10024000089580917501813019F58093770180912F
:10025000C6008A3081F480917601809322018FEF6D
:100260008093760181E090E0909374018093730114
:100270000E941C010895E09176018091C600F0E093
:10028000EE5DFE4F8183809176018F5F80937601D2
:1002900008951F920F920FB60F9211248F9381E051
:1002A000809375018FEF8093760140988F910F9026
:1002B0000FBE0F901F9018954F925F926F927F9292
:1002C0008F929F92AF92BF92CF92DF92EF92FF9266
:1002D0000F931F93CF93DF93CDB7DEB764970FB61D
:1002E000F894DEBF0FBECDBF8C0189829A82AB82AB
:1002F000BC82CD82DE824D875E87C980DA80EB804A
:10030000FC802BED3FE049E450E4C701B6010E94B8
:10031000460B20E030E044E353E40E947E090E9453
:1003200079094B015C0120E030E040E450E4C70172
:10033000B6010E94460B2BED3FE049E450E40E94D9
:10034000460B20E030E044E353E40E947E090E9423
:1003500079092B013C0120E030E040EA50E4C7017C
:10036000B6010E94460B2BED3FE049E450E40E94A9
:10037000460B20E030E044E353E40E947E090E94F3
:100380007909698B7A8B8B8B9C8B6D817E81F801CF
:1003900082859385681B790B072E000C880B990BBF
:1003A0000E94280A23E73EE049ED57E40E94460BED
:1003B0006B017C0125E633ED4EED52E4C501B4013D
:1003C0000E94460B4B015C012EEE3CE74FEB5DE3D8
:1003D000C301B2010E94460B9B01AC01C501B401EF
:1003E0000E9495084B015C0122E838EA4BEF58E384
:1003F00069897A898B899C890E94460B9B01AC0193
:10040000C501B4010E94960820E030E04AE754E4B8
:100410000E94460B4B015C016D857E85F801818D44
:10042000928D681B790B072E000C880B990B0E948C
:10043000280A9B01AC01C501B4010E94460B4B0187
:100440005C01A5019401C501B4010E94460B4B015A
:100450005C01A7019601C701B6010E94460B9B01F2
:10046000AC01C501B4010E9496080E94B90B20E0BE
:1004700034E244E759E40E947E09F80160A771A7BD
:1004800082A793A764960FB6F894DEBF0FBECDBFC8
:10049000DF91CF911F910F91FF90EF90DF90CF9060
:1004A000BF90AF909F908F907F906F905F904F9094
:1004B00008954F925F926F927F928F929F92AF9228
:1004C000BF92CF92DF92EF92FF920F931F93CF9341
:1004D000DF93CDB7DEB764970FB6F894DEBF0FBEDB
:1004E000CDBF8C0189829A82AB82BC82CD82DE82B2
:1004F0004D875E87C980DA80EB80FC802BED3FE082
:1005000049E450E4C701B6010E94460B20E030E008
:1005100044E353E40E947E090E9479094B015C0187
:1005200020E030E040E450E4C701B6010E94460BF1
:100530002BED3FE049E450E40E94460B20E030E020
:1005400044E353E40E947E090E947909698B7A8B07
:100550008B8B9C8B20E030E040EA50E4C701B60171
:100560000E94460B2BED3FE049E450E40E94460B0D
:1005700020E030E044E353E40E947E090E947909C0
:100580006B017C016D817E81F80182859385681BFA
:10059000790B072E000C880B990B0E94280A23E781
:1005A0003EE049ED57E40E94460B2B013C0125E655
:1005B00033ED4EED52E4C501B4010E94460B4B01F0
:1005C0005C012EEE3CE74FEB5DE369897A898B890C
:1005D0009C890E94460B9B01AC01C501B4010E949D
:1005E00095084B015C0122E838EA4BEF58E3C7015C
:1005F000B6010E94460B9B01AC01C501B4010E94EB
:10060000960820E030E04AE754E40E94460B6B0174
:100610007C016D857E85F801818D928D681B790B3B
:10062000072E000C880B990B0E94280A9B01AC0135
:10063000C701B6010E94460B6B017C0120E030E04F
:10064000A901C301B2010E947409882309F44BC0B7
:1006500020E030E0A901C701B6010E9474098111B0
:100660000AC00F2EFDEBCF2EF7E3DF2EF6E8EF2EBC
:10067000F5E3FF2EF02DA3019201C701B6010E9400
:1006800015096B017C0120E030E0A9010E9474098A
:100690008823ACF42BED3FE049EC5FE3C701B601E2
:1006A0000E9495086B017C010AC00F2EFBEDCF2E36
:1006B000FFE0DF2EF9E4EF2EFFE3FF2EF02D20E028
:1006C00030E044E353E4C701B6010E94460B2BED32
:1006D0003FE049E450E40E947E09F80164A775A751
:1006E00086A797A714C020E030E0A901C701B60192
:1006F0000E9474098823C9F20F2EFDEB4F2EF7E3F9
:100700005F2EF6E86F2EF5E37F2EF02DB4CF6496C2
:100710000FB6F894DEBF0FBECDBFDF91CF911F9112
:100720000F91FF90EF90DF90CF90BF90AF909F9090
:100730008F907F906F905F904F900895CF93DF934D
:10074000EC0120E030E04AE754E468A579A58AA5E9
:100750009BA50E94460B0E94F00968AB79AB8AAB5F
:100760009BAB20E030E044EB53E46CA57DA58EA567
:100770009FA50E947E0920E03EEF4FEF56E40E94C5
:10078000460B0E94F0097DAB6CAB8E8D843008F077
:10079000409ADF91CF91089590937A0180937901E7
:1007A0000895FC0170E09B012150310916161706CF
:1007B00074F480E0AF01022E02C0559547950A946B
:1007C000E2F74170842721503109A0F701C080E091
:1007D00090E0089580937B010895809178018230A4
:1007E00071F4E0917901F0917A0160E184A995A911
:1007F0000E94D1030E947804109278010895E0913C
:100800007901F0917A01880F880F880F24A935A902
:10081000A90102C0559547958A95E2F7CA010E9441
:100820007804809178018F5F8093780108950F9309
:100830001F9380917801843071F4E0917901F091F7
:100840007A0160E280A991A90E94D1030E947804F4
:10085000109278011EC0E0917901F0917A01982FF1
:10086000990F990F990F40A951A962A973A98A01FB
:100870009B0104C035952795179507959A95D2F752
:10088000D901C8010E947804809178018F5F80931C
:1008900078011F910F91089580917B01813019F0AB
:1008A000823021F008950E94ED0308950E941704FC
:1008B0000895CF93C82F0E94EA03C0937C01CF9183
:1008C00008950E944C0480917C018093BB000895A0
:1008D0000E944C0480917C018093BB000895F894A1
:1008E000880F8093BA0085EC8093BC0078940895BB
:1008F00080937C0108951F920F920FB60F921124DE
:100900002F933F934F935F936F937F938F939F9317
:10091000AF93BF93EF93FF938091B900887F8038A6
:1009200049F018F48823D1F01FC0883A59F0883B69
:1009300079F01AC08091BB000E94590485EC809325
:10094000BC0015C00E94680485EC8093BC000FC0F9
:100950000E94610485EC8093BC0009C0ECEBF0E0E0
:10096000108285EC808303C085EC8093BC00FF91EE
:10097000EF91BF91AF919F918F917F916F915F9117
:100980004F913F912F910F900FBE0F901F90189590
:10099000CF93DF93CDB7DEB7CB59D1090FB6F8941B
:1009A000DEBF0FBECDBF389A80E40E946F040E9464
:1009B000FA000E94650880E1E0E0F1E0DE011196B6
:1009C00001900D928A95E1F7CE018A599F4F0E94BE
:1009D000CC03CE0141960E940501892BD1F3BE01C3
:1009E0006A597F4FCE0141960E94C806892B61F358
:1009F00089809A80AB80BC80CD80DE80EF80F884D7
:100A000009851A852B853C854D855E856F8578899E
:100A1000CE018A599F4F0E945C0189809A80AB80E9
:100A2000BC80CD80DE80EF80F88409851A852B8517
:100A30003C854D855E856F857889CE018A599F4FAB
:100A40000E945902CE018A599F4F0E949E03BCCF3B
:100A5000FC0116821782108611861282138214827C
:100A6000158211821082158A168A178A108E118AB1
:100A7000128A138A148A108A1786178E168E14A269
:100A800015A216A217A210A211A212A213A210A6BA
:100A900011A612A613A614A615A616A617A60895A3
:100AA000FC012081243261F521812A3259F1DC01D7
:100AB000129660E070E041E050E030E020533109F0
:100AC000622773274F5F5F4F2D912A32B1F71EC007
:100AD000422F50E040535109840F951F3FEB320FD6
:100AE000363028F430E027533109820F931F9C01E0
:100AF0002056310981E026173707D1F080E00895AC
:100B000080E0089560E070E041E050E0FC01E40F17
:100B1000F51F818190E0C09782959295907F9827EC
:100B2000807F9827228130ED320F3A3088F2D6CF7D
:100B30000895CF93DF93CDB7DEB764970FB6F894DF
:100B4000DEBF0FBECDBFFC012081243209F055C0AD
:100B5000DC011196FE0170969E012B5E3F4F8D9138
:100B60009FEB980F9A3108F480833196E217F307D0
:100B7000B1F785E0E0E1F1E0DE011B9601900D9216
:100B80008A95E1F785E0E6E1F1E0DE011696019055
:100B90000D928A95E1F785E0ECE1F1E0DE01119636
:100BA00001900D928A95E1F745E050E0BE01655F46
:100BB0007F4FCE0140960E940111892BC1F045E084
:100BC00050E0BE016A5F7F4FCE0140960E94011146
:100BD000892B79F045E050E0BE016F5F7F4FCE0179
:100BE00040960E940111892B31F080E007C081E01E
:100BF00005C082E003C081E001C080E064960FB6CA
:100C0000F894DEBF0FBECDBFDF91CF9108954F9214
:100C10005F926F927F928F929F92AF92BF92CF928C
:100C2000DF92EF92FF92CF93DF9300D000D000D0FD
:100C3000CDB7DEB79E838D83FC01618170E080E0DB
:100C400090E00E94280A20E030E040E752E40E9451
:100C50007E096B017C01ED81FE816281738184815B
:100C600095810E94260A20E03BE147EB5AE40E946E
:100C70007E0969837A838B839C83ED81FE81608109
:100C800070E080E090E00E94280AA70196010E948F
:100C9000960829813A814B815C810E949608ED81FA
:100CA000FE816683778380879187608970E080E02A
:100CB00090E00E94280A20E030E040E752E40E94E1
:100CC0007E094B015C01ED81FE8161897289838916
:100CD00094890E94260A20E03BE147EB5AE40E94F7
:100CE0007E092B013C01ED81FE81678570E080E08B
:100CF00090E00E94280AA50194010E949608A30191
:100D000092010E949608ED81FE81658B768B878B20
:100D1000908FA3019201C501B4010E94960820E0C2
:100D200034E244E759E40E94460B0E94F709ED8142
:100D3000FE81618F728F838F948F29813A814B81DD
:100D40005C81C701B6010E94960820E034E244E7C6
:100D500059E40E94460B0E94F709ED81FE816287EB
:100D600073878487958726960FB6F894DEBF0FBEEB
:100D7000CDBFDF91CF91FF90EF90DF90CF90BF90EC
:100D8000AF909F908F907F906F905F904F9008955D
:100D90002F923F924F925F926F927F928F929F928B
:100DA000AF92BF92CF92DF92EF92FF920F931F9379
:100DB000CF93DF9300D000D000D0CDB7DEB78C0149
:100DC0007B010E945005882309F464C1C8010E9478
:100DD00099058983C7010E9428052981213009F0DE
:100DE0004DC1D80116968C918A3209F447C10F2E55
:100DF000F0E14F2EF7E25F2E612C712CF02DBAE05E
:100E0000BC83E4E6E983C12C0F2EF0E18F2EF7E2DC
:100E10009F2EA12CB12CF02DFAE0FB832AE02A832F
:100E2000D12C0F2EFAE03F2EF02D1E8296E00F2ED1
:100E3000FDEC2F2EF02D9D838C3231F4BE81BF5FEF
:100E4000BE83ED81EF5FED83FE81F43009F47CC059
:100E500030F4F23071F0F33009F468C005C12E812E
:100E6000263009F4DDC008F4CEC02D3009F4E3C00B
:100E7000FBC0F8018D81E80FF11D8081982F9D7FC7
:100E80009C3209F4F1C091E09D1588F08053D701A0
:100E90009C91BA818B9F900D1124D7019C93BA81AC
:100EA000B29D812D11248695869586958A838EEF35
:100EB0008D0D8230A0F490819053D70111968C91C2
:100EC000BB819B9F800D1124D70111968C93BB8110
:100ED000B29D812D11248695869586958B8323E07E
:100EE0002D1518F5A081B0E0D097A50194010E94BE
:100EF000C50FD70112962D913D914D915C9115979B
:100F0000DC01CB01820F931FA41FB51FF701828361
:100F10009383A483B583C501B4012AE030E040E0A7
:100F200050E00E94A30F49015A01D394F8012D818A
:100F3000E20FF11D80819FEB980F9A3108F094C069
:100F4000D7011E968C9390C0F801BD81EB0FF11D67
:100F50008081982F9D7F9C3209F486C022E02C1559
:100F600098F08053D7011F969C91B9818B9F900D6B
:100F70001124D7011F969C93B981B29D812D112414
:100F800086958695869589838DEF8C0D8230A0F4A9
:100F900090819053D70150968C91BC819B9F800D7E
:100FA0001124D70150968C93BC81B29D812D1124C0
:100FB0008695869586958C8324E02C1518F5A0815E
:100FC000B0E0D097A30192010E94C50FD7015196BE
:100FD0002D913D914D915C915497DC01CB01820F95
:100FE000931FA41FB51FF701818B928BA38BB48B2A
:100FF000C301B2012AE030E040E050E00E94A30FBC
:1010000029013A01C394F8012D81E20FF11D80817D
:101010009FEB980F9A3140F5D7015D968C9324C0D1
:10102000F801BD81EB0FF11D808180538630E0F423
:10103000F701868F19C0F8012D81E20FF11D808123
:10104000982F9D7F9C3281F08053D7015F969C91B1
:101050005F97839D900D11245F969C93329C312C59
:101060001124369436943694BD81BF5FBD83F80158
:10107000EB0FF11D80818A3209F0DECEC7010E949C
:10108000070681E090E0D7015E962C91243020F491
:1010900080E002C080E090E026960FB6F894DEBFB4
:1010A0000FBECDBFDF91CF911F910F91FF90EF90B9
:1010B000DF90CF90BF90AF909F908F907F906F9078
:1010C0005F904F903F902F9008951092C50083E35A
:1010D0008093C40088E98093C10086E08093C200B9
:1010E00008951F920F920FB60F9211242F933F93E2
:1010F0004F935F936F937F938F939F93AF93BF9320
:10110000EF93FF930E942101FF91EF91BF91AF9167
:101110009F918F917F916F915F914F913F912F910F
:101120000F900FBE0F901F9018955058BB27AA27FD
:101130000E94AD080C94F00A0E94B70A38F00E9491
:10114000BE0A20F039F49F3F19F426F40C948D0A5E
:101150000EF4E095E7FB0C94870AE92F0E94150B2B
:1011600058F3BA17620773078407950720F079F4DC
:10117000A6F50C94370B0EF4E0950B2EBA2FA02D8C
:101180000B01B90190010C01CA01A0011124FF2734
:10119000591B99F0593F50F4503E68F11A16F0402F
:1011A000A22F232F342F4427585FF3CF469537952E
:1011B0002795A795F0405395C9F77EF41F16BA0BF3
:1011C000620B730B840BBAF09150A1F0FF0FBB1FA1
:1011D000661F771F881FC2F70EC0BA0F621F731FEA
:1011E000841F48F4879577956795B795F7959E3F47
:1011F00008F0B0CF9395880F08F09927EE0F9795D8
:10120000879508950E94B70A60F080E891E009F49C
:101210009EEF0E94BE0A28F040E851E071F45EEFB4
:101220000CC00C948D0A0C94370BE92FE0780E94C7
:10123000150B40F3092E052AB1F326173707480787
:10124000590738F00E2E07F8E02569F0E025E06434
:101250000AC0EF6307F8009407FADB01B9019D01AA
:10126000DC01CA01AD01EF930E9495090E94F00ACA
:101270000E9445095F91552339F02BED3FE049E489
:1012800050FD49EC0C9496080895DF93DD27B92FA3
:10129000BF7740E85FE31616170648075B0718F4A8
:1012A000D92F0E943E0B9F938F937F936F930E9441
:1012B000F90BE8E6F0E00E94900A0E94F00A2F91F4
:1012C0003F914F915F910E94590BDD2351F090584F
:1012D000A2EA2AED3FE049EC5FE3D0785D270E9467
:1012E000AD08DF910C94F00A0E94630A08F481E0D3
:1012F00008950E94C70AE3950C94010B0E9492097D
:101300000C94F00A0E94BE0A58F00E94B70A40F0FE
:1013100029F45F3F29F00C94870A51110C94380B83
:101320000C948D0A0E94150B68F39923B1F3552391
:1013300091F3951B550BBB27AA27621773078407E8
:1013400038F09F5F5F4F220F331F441FAA1FA9F37E
:1013500035D00E2E3AF0E0E832D091505040E6956C
:10136000001CCAF72BD0FE2F29D0660F771F881FCD
:10137000BB1F261737074807AB07B0E809F0BB0BC0
:10138000802DBF01FF2793585F4F3AF09E3F5105D4
:1013900078F00C94870A0C94380B5F3FE4F3983E86
:1013A000D4F3869577956795B795F7959F5FC9F7BD
:1013B000880F911D9695879597F90895E1E0660F3E
:1013C000771F881FBB1F621773078407BA0720F0B7
:1013D000621B730B840BBA0BEE1F88F7E095089520
:1013E0000E94F7096894B1110C94380B08950E947B
:1013F0001D0B88F09F5798F0B92F9927B751B0F07F
:10140000E1F0660F771F881F991F1AF0BA95C9F788
:1014100014C0B13091F00E94370BB1E008950C94E4
:10142000370B672F782F8827B85F39F0B93FCCF397
:10143000869577956795B395D9F73EF49095809505
:10144000709561957F4F8F4F9F4F0895E89409C025
:1014500097FB3EF490958095709561957F4F8F4FE7
:101460009F4F9923A9F0F92F96E9BB279395F695FD
:10147000879577956795B795F111F8CFFAF4BB0F7B
:1014800011F460FF1BC06F5F7F4F8F4F9F4F16C0DF
:10149000882311F096E911C0772321F09EE8872F69
:1014A000762F05C0662371F096E8862F70E060E025
:1014B0002AF09A95660F771F881FDAF7880F96959E
:1014C000879597F90895990F0008550FAA0BE0E842
:1014D000FEEF16161706E807F907C0F012161306F6
:1014E000E407F50798F0621B730B840B950B39F436
:1014F0000A2661F0232B242B252B21F408950A269C
:1015000009F4A140A6958FEF811D811D089597F9DB
:101510009F6780E870E060E008959FEF80EC089599
:10152000DF93CF931F930F93FF92EF92DF927B0194
:101530008C01689406C0DA2EEF010E94590BFE015F
:10154000E894A5912591359145915591A6F3EF0128
:101550000E94AD08FE019701A801DA9469F7DF90B7
:10156000EF90FF900F911F91CF91DF91089500248C
:101570000A941616170618060906089500240A94F8
:10158000121613061406050608950C948D0A0E947F
:101590001D0BD8F3E894E0E0BB279F57F0F02AED4D
:1015A0003FE049EC06C0EE0FBB0F661F771F881F98
:1015B00028F0B23A62077307840728F0B25A620B28
:1015C000730B840BE3959A9572F7803830F49A95F3
:1015D000BB0F661F771F881FD2F790480C94FF0B34
:1015E000092E0394000C11F4882352F0BB0F40F431
:1015F000BF2B11F460FF04C06F5F7F4F8F4F9F4F71
:101600000895EF93E0FF07C0A2EA2AED3FE049EC1E
:101610005FEB0E94AD080E94F00A0F90039401FC5A
:101620009058E5E9F0E00C94120C57FD9058440FE7
:10163000551F59F05F3F71F04795880F97FB991F31
:1016400061F09F3F79F087950895121613061406EE
:10165000551FF2CF4695F1DF08C01616170618067B
:10166000991FF1CF86957105610508940895E89456
:10167000BB2766277727CB0197F908959B01AC011B
:1016800060E070E080E89FE30C947E090E94590BB3
:101690000C94F00A0E94B70A38F00E94BE0A20F0AB
:1016A000952311F00C94870A0C948D0A11240C9444
:1016B000380B0E94150B70F3959FC1F3950F50E006
:1016C000551F629FF001729FBB27F00DB11D639FF4
:1016D000AA27F00DB11DAA1F649F6627B00DA11D9A
:1016E000661F829F2227B00DA11D621F739FB00D40
:1016F000A11D621F839FA00D611D221F749F3327B0
:10170000A00D611D231F849F600D211D822F762F48
:101710006A2F11249F5750409AF0F1F088234AF025
:10172000EE0FFF1FBB1F661F771F881F9150504091
:10173000A9F79E3F510580F00C94870A0C94380B52
:101740005F3FE4F3983ED4F3869577956795B79518
:10175000F795E7959F5FC1F7FE2B880F911D969532
:10176000879597F9089519F416F40C948D0A0C9442
:10177000FD0B0E941D0BB8F39923C9F3B6F39F57D5
:10178000550B87FF0E940B0C0024A0E640EA900155
:1017900080585695979528F4805C660F771F881FB0
:1017A00020F026173707480730F4621B730B840BB1
:1017B000202931294A2BA6951794079420253125F5
:1017C0004A2758F7660F771F881F20F0261737071C
:1017D000480730F4620B730B840B200D311D411D43
:1017E000A09581F7B901842F9158880F9695879518
:1017F00008959B01AC010C94460B9F3F31F0915032
:1018000020F4879577956795B795880F911D9695E4
:10181000879597F9089591505040660F771F881F5C
:10182000D2F708959F938F937F936F93FF93EF93D6
:101830009B01AC010E94460BEF91FF910E94900A20
:101840002F913F914F915F910C94460BA0E1B0E036
:10185000ECE2FCE00C94CD0F7C011B016A01FC0161
:1018600017821682838181FF44C39E012F5F3F4F01
:101870003901F7019381F10193FD859193FF8191E6
:101880001F01882309F431C3853239F493FD859112
:1018900093FF81911F01853239F4B70190E00E94D6
:1018A0001A1156016501E5CF10E0512C912CFFE192
:1018B000F915D8F08B3279F038F4803279F0833230
:1018C000A1F4F92DF0612EC08D3261F0803369F4FE
:1018D000292D21602DC0392D3260932E892D8460F1
:1018E000982E2AC0E92DE86015C097FC2DC020ED88
:1018F000280F2A3088F496FE06C03AE0139F200D88
:101900001124122F19C08AE0589E200D1124522E46
:10191000E92DE0629E2E10C08E3231F496FCE5C2B5
:10192000F92DF0649F2E08C08C3621F4292D2068F3
:10193000922E02C0883641F4F10193FD859193FF08
:1019400081911F018111B3CF9BEB980F933020F44D
:10195000992D9061805E07C09BE9980F933008F045
:1019600066C1992D9F7E96FF16E09F73992E85364E
:1019700019F49064992E08C0863621F4392F306806
:10198000932E02C01111115097FE07C01C3350F462
:1019900044244394410E27E00BC0183038F027E070
:1019A00017E005C027E09CE3492E02C0212F412CFF
:1019B000560184E0A80EB11CF6016081718182811C
:1019C0009381042DA3010E941E106C01F981FC87F4
:1019D000F0FF02C0F3FF06C091FC06C092FE06C0F5
:1019E00000E205C00DE203C00BE201C000E08C85FF
:1019F0008C7019F001115AC29BC297FE10C04C0C9A
:101A0000FC85F4FF04C08A81813309F44A941414DC
:101A100074F528E0241578F588E0482E2CC096FC53
:101A20002AC0812F90E08C159D059CF03CEFC316D9
:101A30003FEFD30674F0892D8068982E0AC0E2E04B
:101A4000F0E0EC0FFD1FE10FF11D8081803319F4F0
:101A500011501111F4CF97FE0EC044244394410E4F
:101A6000812F90E0C816D9062CF41C1904C0442418
:101A7000439401C010E097FE06C01C141D0434F40A
:101A8000C601019605C085E090E002C081E090E0CB
:101A900001110196112331F0212F30E02F5F3F4FCC
:101AA000820F931F252D30E08217930714F4581AE4
:101AB00001C0512C892D897049F4552039F0B701A6
:101AC00080E290E00E941A115A94F7CF002329F087
:101AD000B701802F90E00E941A1193FC09C0552095
:101AE00039F0B70180E390E00E941A115A94F7CFC1
:101AF00097FE4CC04601D7FE02C0812C912CC60136
:101B000088199909F301E80FF91FFE87ED879601FF
:101B100024193109388B2F87012F10E01195019579
:101B200011093FEF8316930629F4B7018EE290E086
:101B30000E941A11C814D9044CF08F859889881511
:101B4000990524F4ED85FE85818101C080E3F1E0F3
:101B50008F1A91082D853E852F5F3F4F3E872D8739
:101B6000801691062CF0B70190E00E941A11D9CF8F
:101B7000C814D90441F49A81963320F4953319F4AA
:101B80003C8534FF81E3B70190E04EC08A81813308
:101B900019F09C859F7E9C87B70190E00E941A11E6
:101BA000111105C094FC18C085E690E017C0B7017C
:101BB0008EE290E00E941A111E5F82E001E0080FA1
:101BC000F301E80FF11D8081B70190E00E941A1126
:101BD000802F0113F3CFE6CF85E490E0B7010E9498
:101BE0001A11D7FC06C0C114D10441F4EC85E4FFFE
:101BF00005C0D194C194D1088DE201C08BE2B70138
:101C000090E00E941A1180E32AE0C216D1042CF061
:101C10008F5FFAE0CF1AD108F7CFB70190E00E94AA
:101C20001A11B701C601C0960E941A1154C1833619
:101C300031F0833779F0833509F056C020C0560162
:101C400032E0A30EB11CF6018081898301E010E02F
:101C5000630112C05601F2E0AF0EB11CF601C08064
:101C6000D18096FE03C0612F70E002C06FEF7FEF5E
:101C7000C6010E940F118C01F92DFF7714C0560187
:101C800022E0A20EB11CF601C080D18096FE03C0F6
:101C9000612F70E002C06FEF7FEFC6010E94F61067
:101CA0008C01F92DF0689F2EF3FD1AC0852D90E070
:101CB00008171907A8F4B70180E290E00E941A11F2
:101CC0005A94F4CFF60197FC859197FE81916F01AC
:101CD000B70190E00E941A1151105A940150110955
:101CE0000115110579F7F7C0843611F0893661F5D1
:101CF000560197FE09C024E0A20EB11CF6016081D6
:101D00007181828193810AC0F2E0AF0EB11CF601AD
:101D100060817181072E000C880B990BF92DFF76DD
:101D20009F2E97FF09C090958095709561957F4F84
:101D30008F4F9F4FF0689F2E2AE030E0A3010E9452
:101D40005611C82EC6183FC0092D853721F40F7EC5
:101D50002AE030E01DC0097F8F3691F018F48835F5
:101D600059F0C3C0803719F0883711F0BEC0006148
:101D700004FF09C0046007C094FE08C0066006C0E6
:101D800028E030E005C020E130E002C020E132E090
:101D9000560107FF09C084E0A80EB11CF60160815E
:101DA00071818281938108C0F2E0AF0EB11CF6010F
:101DB0006081718180E090E0A3010E945611C82EDD
:101DC000C6180F77902E96FE0BC0092D0E7FC116F8
:101DD00050F494FE0AC092FC08C0092D0E7E05C086
:101DE000DC2C092D03C0DC2C01C0D12E04FF0DC05A
:101DF000FE01EC0DF11D8081803311F4097E09C0D4
:101E000002FF06C0D394D39404C0802F867809F0D3
:101E1000D39403FD11C000FF06C01C2DD51480F41F
:101E2000150D1D190DC0D51458F4B70180E290E0CE
:101E30000E941A11D394F7CFD51410F45D1801C085
:101E4000512C04FF10C0B70180E390E00E941A11EA
:101E500002FF17C001FD03C088E790E002C088E5DB
:101E600090E0B7010CC0802F867859F001FF02C0C6
:101E70008BE201C080E207FD8DE2B70190E00E9495
:101E80001A11C11638F4B70180E390E00E941A11CC
:101E90001150F7CFCA94F301EC0DF11D8081B70109
:101EA00090E00E941A11C110F5CF15C0F4E0F515AD
:101EB00060F584E0581A93FE1FC0011127C02C85DD
:101EC00023FF2AC004EB10E0392D3071932EF80166
:101ED0008491811124C0552009F4E4CCB70180E23B
:101EE00090E00E941A115A94F6CFF70186819781EB
:101EF00026C08FEF9FEF23C0B70180E290E00E94E1
:101F00001A115A945110F8CFD8CF512CB701802F05
:101F100090E00E941A11D3CF08EB10E0D5CF9110BA
:101F20008052B70190E00E941A110F5F1F4FCFCF70
:101F300023E0251510F483E0BDCF512CC0CF60966F
:101F4000E2E10C94E90FA1E21A2EAA1BBB1BFD01D2
:101F50000DC0AA1FBB1FEE1FFF1FA217B307E40788
:101F6000F50720F0A21BB30BE40BF50B661F771FE0
:101F7000881F991F1A9469F76095709580959095C0
:101F80009B01AC01BD01CF010895B7FF0C94041073
:101F90000E940410821B930B08952F923F924F9240
:101FA0005F926F927F928F929F92AF92BF92CF92E9
:101FB000DF92EF92FF920F931F93CF93DF93CDB7F2
:101FC000DEB7CA1BDB0B0FB6F894DEBF0FBECDBF6A
:101FD00009942A88398848885F846E847D848C843B
:101FE0009B84AA84B984C884DF80EE80FD800C8144
:101FF0001B81AA81B981CE0FD11D0FB6F894DEBF27
:102000000FBECDBFED0108950E940F10A59F900D4A
:10201000B49F900DA49F800D911D11240895A29F3F
:10202000B001B39FC001A39F700D811D1124911DAC
:10203000B29F700D811D1124911D0895283008F064
:1020400027E03327DA01990F311D87FD9160009653
:102050006105710539F432602E5F3D9330E32A95B6
:10206000E1F708959F3F30F080387105610509F070
:102070003C5F3C5F3D93913008F08068911DDF9399
:10208000CF931F930F93FF92EF92192F987F9695FE
:10209000E92F96959695E90FFF27EA5EFE4F99275F
:1020A0003327EE24FF24A701E70105900894079445
:1020B00028F4360FE71EF81E491F511D660F771FC3
:1020C000881F991F0694A1F70590079428F4E70E3E
:1020D000F81E491F561FC11D770F881F991F661FC5
:1020E0000694A1F70590079428F4F80E491F561F8F
:1020F000C71FD11D880F991F661F771F0694A1F770
:102100000590079420F4490F561FC71FD81F990F39
:10211000661F771F881F0694A9F784911095177082
:1021200041F0D695C79557954795F794E7941A953A
:10213000C1F7ECEBF0E0689415901591359165913D
:10214000959105907FE27395E118F10A430B560BC8
:10215000C90BD009C0F7E10CF11E431F561FC91F60
:10216000D01D7EF4703311F48A95E6CFE8940150C7
:1021700030F0080F0AF40027021708F4202F2395E7
:10218000022F7A3328F079E37D932A95E9F710C07E
:102190007D932A9589F606949795679537951795B7
:1021A0001794E118F10A430B560BC90BD00998F0AC
:1021B00023957E9173957A3308F070E37C93201316
:1021C000B8F77E9170617D9330F0839571E37D93D4
:1021D00070E32A95E1F71124EF90FF900F911F9182
:1021E000CF91DF91992787FD90950895FC01059087
:1021F000615070400110D8F7809590958E0F9F1F09
:102200000895FB01DC014150504030F08D91019068
:10221000801919F40020B9F7881B990B0895FC0167
:102220006150704001900110D8F7809590958E0F05
:102230009F1F08950F931F93CF93DF93FB0123817B
:1022400021FD03C08FEF9FEF2CC022FF16C04681F7
:102250005781248135814217530744F4A081B1810D
:102260009D012F5F3F4F318320838C9326813781DF
:102270002F5F3F4F3783268314C08B01EC01FB0196
:102280000084F185E02D0995892BE1F6D801169699
:102290008D919C911797019617969C938E93169704
:1022A000CE01DF91CF911F910F910895FA01AA27D6
:1022B000283051F1203181F1E8946F936E7F6E5F89
:1022C0007F4F8F4F9F4FAF4FB1E03ED0B4E03CD037
:1022D000670F781F891F9A1FA11D680F791F8A1F1A
:1022E000911DA11D6A0F711D811D911DA11D20D081
:1022F00009F468943F912AE0269F11243019305D3B
:102300003193DEF6CF010895462F4770405D41932B
:10231000B3E00FD0C9F7F6CF462F4F70405D4A3378
:1023200018F0495D31FD4052419302D0A9F7EACF40
:10233000B4E0A6959795879577956795BA95C9F76F
:1023400000976105710508959B01AC010A2E069462
:102350005795479537952795BA95C9F7620F731F1B
:0C236000841F951FA01D0895F894FFCF66
:10236C00D7A35B42BAE70D00E17A1C41A8E80B0049
:10237C00475047474100475056544700474E474740
:02238C0041000E
:00000001FF
