:100000000C94DB000C944C010C94F8000C94F80058
:100010000C94F8000C94F8000C94F8000C94F80080
:100020000C94F8000C94F8000C94F8000C94F80070
:100030000C94F8000C94F8000C94F8000C94F80060
:100040000C94F8000C94F8000C949D090C94F800A2
:100050000C94F8000C94F8000C94F8000C94F80040
:100060000C944F050C94F800084AD73B3BCE016E28
:1000700084BCBFFDC12F3D6C74319ABD56833DDAFF
:100080003D00C77F11BED9E4BB4C3E916BAAAABE0E
:10009000000000803F05A84CCDB2D44EB93836A937
:1000A000020C50B9918688083CA6AAAA2ABE000074
:1000B00000803F006E616E00696E660000407A103D
:1000C000F35A00A0724E18090010A5D4E80000E809
:1000D0007648170000E40B54020000CA9A3B000067
:1000E00000E1F505000080969800000040420F00F6
:1000F0000000A08601000000102700000000E803B7
:10010000000000006400000000000A000000000081
:100110000100000000002C76D888DC674F0823DF40
:10012000C1DFAE59E1B1B796E5E3E453C63AE65113
:10013000997696E8E6C28426EB898C9B62ED407C3A
:100140006FFCEFBC9C9F40F2BAA56FA5F490055AD6
:100150002AF75C936B6CF9676DC11BFCE0E40D47FB
:10016000FEF520E6B500D0ED902E0300943577051E
:100170000080841E080000204E0A000000C80C33D6
:100180003333330F986E12831141EF8D2114893B65
:10019000E65516CFFEE6DB18D1844B381BF77C1DE5
:1001A000901DA4BBE424203284725E228100C9F138
:1001B00024ECA1E53D2711241FBECFEFD8E0DEBF20
:1001C000CDBF11E0A0E0B1E0EAEFF5E202C005909A
:1001D0000D92A436B107D9F721E0A4E6B1E001C041
:1001E0001D92AD3CB207E1F70E949C050C94FB12F6
:1001F0000C9400000E944909089552988BB18BB964
:10020000E89AE9E6F0E0808183608083789408953D
:10021000DC018091B9019091BA018130910561F4BE
:100220001092BA011092B90120E5E9E6F1E00190DF
:100230000D922A95E1F7089580E090E008951092DC
:10024000BB011092BD0108958091BB01813019F569
:100250008093BD018091C6008A3081F48091BC01F9
:10026000809368018FEF8093BC0181E090E09093D0
:10027000BA018093B9010E941F010895E091BC0169
:100280008091C600F0E0E859FE4F81838091BC0167
:100290008F5F8093BC0108951F920F920FB60F924B
:1002A00011248F9381E08093BB018FEF8093BC0179
:1002B0008F910F900FBE0F901F9018954F925F92E5
:1002C0006F927F928F929F92AF92BF92CF92DF9266
:1002D000EF92FF920F931F93CF93DF93CDB7DEB7CB
:1002E00068970FB6F894DEBF0FBECDBF8C01898230
:1002F0009A82AB82BC82CD82DE82EF82F8864D8705
:100300005E876F87788B4D815E816F817885FC0178
:1003100082859385A485B5854A015B01881A990A6F
:10032000AA0ABB0A4D855E856F857889818D928D7D
:10033000A38DB48D2A013B01481A590A6A0A7B0A27
:100340008091660190916701892B09F08CC0C9806A
:10035000DA80EB80FC802BED3FE049E450E4C701FC
:10036000B6010E94770C20E030E044E353E40E94A1
:10037000AA0A0E94A50A698B7A8B8B8B9C8B20E042
:1003800030E040E450E4C701B6010E94770C2BED49
:100390003FE049E450E40E94770C20E030E044E381
:1003A00053E40E94AA0A0E94A50A6D8B7E8B8F8B54
:1003B000988F20E030E040EA50E4C701B6010E9487
:1003C000770C2BED3FE049E450E40E94770C20E0ED
:1003D00030E044E353E40E94AA0A0E94A50A6B019C
:1003E0007C0125E633ED4EED52E469897A898B89EB
:1003F0009C890E94770C698B7A8B8B8B9C8B2EEE61
:100400003CE74FEB5DE36D897E898F89988D0E9473
:10041000770C9B01AC0169897A898B899C890E9440
:10042000C109698B7A8B8B8B9C8B22E838EA4BEF66
:1004300058E3C701B6010E94770C9B01AC016989A2
:100440007A898B899C890E94C2096093BE0170934E
:10045000BF018093C0019093C10181E090E090932F
:10046000670180936601C501B4010E94540B23E724
:100470003EE049ED57E40E94770C4B015C01C3015B
:10048000B2010E94540B2091BE013091BF014091F6
:10049000C0015091C1010E94770C6B017C01A50144
:1004A0009401C501B4010E94770C4B015C01A701C6
:1004B0009601C701B6010E94770C9B01AC01C501F2
:1004C000B4010E94C2090E94EA0C20E030E543EC2E
:1004D00057E40E94AA0AF80160A771A782A793A710
:1004E00068960FB6F894DEBF0FBECDBFDF91CF91F7
:1004F0001F910F91FF90EF90DF90CF90BF90AF9042
:100500009F908F907F906F905F904F9008954F9243
:100510005F926F927F928F929F92AF92BF92CF9293
:10052000DF92EF92FF920F931F93CF93DF93CDB79C
:10053000DEB7A0970FB6F894DEBF0FBECDBF8C011B
:1005400089829A82AB82BC82CD82DE82EF82F8867B
:100550004D875E876F87788B8D809E80AF80B88453
:10056000FC0182859385A485B585881A990AAA0A13
:10057000BB0ACD84DE84EF84F888818D928DA38DB3
:10058000B48DC81AD90AEA0AFB0A809164019091D5
:100590006501892B09F096C049805A806B807C8068
:1005A0002BED3FE049E450E4C301B2010E94770C17
:1005B00020E030E044E353E40E94AA0A0E94A50A26
:1005C000698B7A8B8B8B9C8B20E030E040E450E48D
:1005D000C301B2010E94770C2BED3FE049E450E4E7
:1005E0000E94770C20E030E044E353E40E94AA0A22
:1005F0000E94A50A698F7A8F8B8F9C8F20E030E054
:1006000040EA50E4C301B2010E94770C2BED3FE0B9
:1006100049E450E40E94770C20E030E044E353E4E6
:100620000E94AA0A0E94A50A6D8F7E8F8F8F98A3C1
:1006300025E633ED4EED52E469897A898B899C89F0
:100640000E94770C698B7A8B8B8B9C8B2EEE3CE710
:100650004FEB5DE3698D7A8D8B8D9C8D0E94770CBD
:100660009B01AC0169897A898B899C890E94C109A7
:10067000698B7A8B8B8B9C8B22E838EA4BEF58E3A3
:100680006D8D7E8D8F8D98A10E94770C9B01AC01A2
:1006900069897A898B899C890E94C20920E030E0AF
:1006A0004AE754E40E94770C6093BE017093BF0147
:1006B0008093C0019093C10181E090E09093650127
:1006C00080936401C501B4010E94540B23E73EE00E
:1006D00049ED57E40E94770C4B015C01C701B6015C
:1006E0000E94540B2091BE013091BF014091C00186
:1006F0005091C1010E94770C6B017C0120E030E039
:10070000A901C501B4010E94A00A81110AC00F2EDF
:10071000FDEB8F2EF7E39F2EF6E8AF2EF5E3BF2E0D
:10072000F02D20E030E0A901C701B6010E94A00A27
:10073000882309F4C2C020E030E0A901C701B60156
:100740000E946A0C1816ECF420E030E0A901C50103
:10075000B4010E946A0C1816A4F4A5019401C70103
:10076000B6010E94410A6D8B7E8B8F8B988F20E0A3
:1007700030E0A901C701B6010E94A00A88239CF0BD
:1007800023C020E030E0A901C701B6010E94A00A01
:100790008823D4F420E030E0A901C501B4010E940F
:1007A0006A0C1816D4F4A5019401C701B6010E9481
:1007B000410A2BED3FE049EC50E40E94C2096D8BE9
:1007C0007E8B8F8B988F09C020E030E0A901C70194
:1007D000B6010E94A00A88233CF520E030E0A90180
:1007E000C501B4010E94A00A8823F4F4A501940174
:1007F000C701B6010E94410A2B013C0120E030E014
:10080000A901C701B6010E946A0C1816FCF02BED75
:100810003FE049EC50E4C301B2010E94C2096D8B74
:100820007E8B8F8B988F1CC020E030E0A901C70120
:10083000B6010E946A0C18169CF420E030E0A90171
:10084000C501B4010E94A00A882354F4A5019401B3
:10085000C701B6010E94410A6D8B7E8B8F8B988FEA
:1008600020E030E044E353E46D897E898F89988DE0
:100870000E94770C2BED3FE049E450E40E94AA0A65
:10088000F80164A775A786A797A72BC0A5019401B7
:100890006DEB77E386E895E30E94410A6D8B7E8BD2
:1008A0008F8B988F0F2EFDEBCF2EF7E3DF2EF6E820
:1008B000EF2EF5E3FF2EF02D87CF20E030E0A901E9
:1008C000C501B4010E946A0C181604F30F2EFDEB4B
:1008D000CF2EF7E3DF2EF6E8EF2EF5E3FF2EF02D17
:1008E00050CFA0960FB6F894DEBF0FBECDBFDF91FC
:1008F000CF911F910F91FF90EF90DF90CF90BF901D
:10090000AF909F908F907F906F905F904F900895E1
:10091000CF93DF93EC0168A579A58AA59BA50E94DA
:100920001C0B68AB79AB8AAB9BAB6CA57DA58EA588
:100930009FA50E941C0B7DAB6CABDF91CF910895FE
:100940009093C4018093C3010895FC0170E09B0162
:10095000215031091616170674F480E0AF01022EFB
:1009600002C0559547950A94E2F7417084272150BB
:100970003109A0F701C080E090E008958093C5019F
:1009800008958091C201823071F4E091C301F09129
:10099000C40160E184A995A90E94A5040E944C05A8
:1009A0001092C2010895E091C301F091C401880F33
:1009B000880F880F24A935A9A90102C0559547952C
:1009C0008A95E2F7CA010E944C058091C2018F5FAF
:1009D0008093C20108950F931F938091C2018430C8
:1009E00071F4E091C301F091C40160E280A991A982
:1009F0000E94A5040E944C051092C2011EC0E09105
:100A0000C301F091C401982F990F990F990F40A934
:100A100051A962A973A98A019B0104C03595279544
:100A2000179507959A95D2F7D901C8010E944C05F0
:100A30008091C2018F5F8093C2011F910F91089531
:100A40008091C501813019F0823021F008950E9413
:100A5000C10408950E94EB040895CF93C82F0E940B
:100A6000BE04C093C601CF9108950E9420058091D5
:100A7000C6018093BB0008950E9420058091C601A5
:100A80008093BB000895F894880F8093BA0085EC9A
:100A90008093BC00789408958093C60108951F92B6
:100AA0000F920FB60F9211242F933F934F935F93A2
:100AB0006F937F938F939F93AF93BF93EF93FF9326
:100AC0008091B900887F803849F018F48823D1F0EC
:100AD0001FC0883A59F0883B79F01AC08091BB005A
:100AE0000E942D0585EC8093BC0015C00E943C053A
:100AF00085EC8093BC000FC00E94350585EC809387
:100B0000BC0009C0ECEBF0E0108285EC808303C0F0
:100B100085EC8093BC00FF91EF91BF91AF919F91C5
:100B20008F917F916F915F914F913F912F910F9096
:100B30000FBE0F901F901895CF93DF93CDB7DEB700
:100B4000CB5DD1090FB6F894DEBF0FBECDBF389A8A
:100B500080E40E9443050E94FD000E94910987EDF8
:100B600093EAABE5B2E4898B9A8BAB8BBC8B81EEBD
:100B70009AE7ACE1B1E4898F9A8FAB8FBC8F84E99F
:100B800094ECAFE6B5E08D8B9E8BAF8BB88F88EC85
:100B900097E8A6EAB4E08D8F9E8FAF8FB8A3CE0101
:100BA0008A559F4F0E9452063E0126EA620E711C32
:100BB000262C372C0F2EF0E24F2EF1E05F2EF02D79
:100BC0000E949109822D932D0E94A004CE018F5A7C
:100BD0009F4F0E940801892BC9F3622D732DCE010E
:100BE0008F5A9F4F0E94A507892B51F389889A88B5
:100BF000AB88BC88CD88DE88EF88F88C098D1A8D8B
:100C00002B8D3C8D4D8D5E8D6F8D78A1822D932D1A
:100C10000E945E0189889A88AB88BC88CD88DE886E
:100C2000EF88F88C098D1A8D2B8D3C8D4D8D5E8D46
:100C30006F8D78A1822D932D0E948702822D932D96
:100C40000E9488040E94FA00F30185A98F9384A969
:100C50008F9383A98F9382A98F9381A98F9380A962
:100C60008F935F924F920E948712F30187A58F9313
:100C700086A58F9385A58F9384A58F9383A58F9346
:100C800082A58F9381A58F9380A58F9387E491E0B0
:100C90009F938F930E9487120FB6F894DEBF0FBE0A
:100CA000CDBF8ECFFC01168217821086118612826C
:100CB00013821482158211821082158A168A178A6D
:100CC000108E118A128A138A148A108A1786178E38
:100CD000168E14A215A216A217A210A211A212A279
:100CE00013A215AA14AA10A611A612A613A610AA3A
:100CF00011AA12AA13AA14A615A616A617A6089535
:100D0000FC012081243261F521812A3259F1DC0174
:100D1000129660E070E041E050E030E0205331098D
:100D2000622773274F5F5F4F2D912A32B1F71EC0A4
:100D3000422F50E040535109840F951F3FEB320F73
:100D4000363028F430E027533109820F931F9C017D
:100D50002056310981E026173707D1F080E0089549
:100D600080E0089560E070E041E050E0FC01E40FB5
:100D7000F51F818190E0C09782959295907F98278A
:100D8000807F9827228130ED320F3A3088F2D6CF1B
:100D90000895CF93DF93CDB7DEB764970FB6F8947D
:100DA000DEBF0FBECDBFFC012081243209F055C04B
:100DB000DC011196FE0170969E012B5E3F4F8D91D6
:100DC0009FEB980F9A3108F480833196E217F3076E
:100DD000B1F785E0EEE0F1E0DE011B9601900D92A7
:100DE0008A95E1F785E0E4E1F1E0DE0116960190F5
:100DF0000D928A95E1F785E0EAE1F1E0DE011196D6
:100E000001900D928A95E1F745E050E0BE01655FE3
:100E10007F4FCE0140960E943212892BC1F045E0EF
:100E200050E0BE016A5F7F4FCE0140960E943212B1
:100E3000892B79F045E050E0BE016F5F7F4FCE0116
:100E400040960E943212892B31F080E007C081E089
:100E500005C082E003C081E001C080E064960FB667
:100E6000F894DEBF0FBECDBFDF91CF910895CF9232
:100E7000DF92EF92FF92CF93DF93EC0169897A8939
:100E80008B899C890E94520B20E030E543EC57E4AB
:100E90000E94AA0A6B017C01688970E080E090E002
:100EA0000E94540B9B01AC01C701B6010E94C2090C
:100EB0006D8B7E8B8F8B988F20E23CEB4EEB5CE44E
:100EC0000E94770C20E030E040E752E40E94AA0A3A
:100ED0000E94230B698F7A8F8B8F9C8F6A817B8115
:100EE0008C819D810E94520B20E030E543EC57E459
:100EF0000E94AA0A6B017C01698170E080E090E0A9
:100F00000E94540B9B01AC01C701B6010E94C209AB
:100F10006E837F838887998720E23CEB4EEB5CE40D
:100F20000E94770C20E030E040E752E40E94AA0AD9
:100F30000E94230B6A877B878C879D87DF91CF91E7
:100F4000FF90EF90DF90CF9008952F923F924F92B5
:100F50005F926F927F928F929F92AF92BF92CF9249
:100F6000DF92EF92FF920F931F93CF93DF9300D006
:100F700000D000D0CDB7DEB78C017B010E94800687
:100F8000882309F464C1C8010E94C9068983C70186
:100F90000E9452062981213009F04DC1D8011696D0
:100FA0008C918A3209F447C10F2EF0E14F2EF7E2FF
:100FB0005F2E612C712CF02DBAE0BC83E4E6E9834E
:100FC000C12C0F2EF0E18F2EF7E29F2EA12CB12C19
:100FD000F02DFAE0FB832AE02A83D12C0F2EFAE0D1
:100FE0003F2EF02D1E8296E00F2EFDEC2F2EF02DC1
:100FF0009D838C3231F4BE81BF5FBE83ED81EF5F94
:10100000ED83FE81F43009F47CC030F4F23071F0ED
:10101000F33009F468C005C12E81263009F4DDC023
:1010200008F4CEC02D3009F4E3C0FBC0F8018D8177
:10103000E80FF11D8081982F9D7F9C3209F4F1C04B
:1010400091E09D1588F08053D7019C91BA818B9FC8
:10105000900D1124D7019C93BA81B29D812D11244A
:101060008695869586958A838EEF8D0D8230A0F4C5
:1010700090819053D70111968C91BB819B9F800DDD
:101080001124D70111968C93BB81B29D812D11241F
:101090008695869586958B8323E02D1518F5A0817E
:1010A000B0E0D097A50194010E94F610D7011296E6
:1010B0002D913D914D915C911597DC01CB01820FF3
:1010C000931FA41FB51FF70182839383A483B58365
:1010D000C501B4012AE030E040E050E00E94D410A5
:1010E00049015A01D394F8012D81E20FF11D80814D
:1010F0009FEB980F9A3108F094C0D7011E968C93FD
:1011000090C0F801BD81EB0FF11D8081982F9D7F6C
:101110009C3209F486C022E02C1598F08053D70148
:101120001F969C91B9818B9F900D1124D7011F961A
:101130009C93B981B29D812D1124869586958695C3
:1011400089838DEF8C0D8230A0F490819053D7016C
:1011500050968C91BC819B9F800D1124D701509695
:101160008C93BC81B29D812D1124869586958695A0
:101170008C8324E02C1518F5A081B0E0D097A30152
:1011800092010E94F610D70151962D913D914D91FB
:101190005C915497DC01CB01820F931FA41FB51FF4
:1011A000F701818B928BA38BB48BC301B2012AE030
:1011B00030E040E050E00E94D41029013A01C3948D
:1011C000F8012D81E20FF11D80819FEB980F9A317C
:1011D00040F5D7015D968C9324C0F801BD81EB0FDB
:1011E000F11D808180538630E0F4F701868F19C0AD
:1011F000F8012D81E20FF11D8081982F9D7F9C3297
:1012000081F08053D7015F969C915F97839D900DED
:1012100011245F969C93329C312C11243694369481
:101220003694BD81BF5FBD83F801EB0FF11D808156
:101230008A3209F0DECEC7010E94370781E090E0D4
:10124000D7015E962C91243020F480E002C080E02B
:1012500090E026960FB6F894DEBF0FBECDBFDF91AB
:10126000CF911F910F91FF90EF90DF90CF90BF90A3
:10127000AF909F908F907F906F905F904F903F9036
:101280002F90089550985898519A59980E946D0936
:1012900008958FEE8093640084B114B885B19FEFF8
:1012A00095B987B1807887B988B18F6788B98AB1D5
:1012B0001AB88BB19BB940E060E881E690E00E94EB
:1012C000660913BE15BE0E94420908952FB7F8940F
:1012D000FC01608340832FBF0895E4E6F0E0808145
:1012E0008D7F80831092C50083E38093C4001092A9
:1012F000C00088E98093C10080E091E09093CA012A
:101300008093C90180E00895E0ECF0E0908195FFC2
:10131000FDCF8093C60008950E94840980E090E08C
:1013200008951092C50083E38093C40088E98093F8
:10133000C10086E08093C20008951F920F920FB6FD
:101340000F9211242F933F934F935F936F937F934B
:101350008F939F93AF93BF93EF93FF930E942401CA
:10136000FF91EF91BF91AF919F918F917F916F917D
:101370005F914F913F912F910F900FBE0F901F9053
:1013800018955058BB27AA270E94D9090C941C0C09
:101390000E94E30B38F00E94EA0B20F039F49F3FE3
:1013A00019F426F40C94B90B0EF4E095E7FB0C94B9
:1013B000B30BE92F0E94410C58F3BA176207730769
:1013C0008407950720F079F4A6F50C94630C0EF4CD
:1013D000E0950B2EBA2FA02D0B01B90190010C0145
:1013E000CA01A0011124FF27591B99F0593F50F45D
:1013F000503E68F11A16F040A22F232F342F4427B5
:10140000585FF3CF469537952795A795F0405395AC
:10141000C9F77EF41F16BA0B620B730B840BBAF07C
:101420009150A1F0FF0FBB1F661F771F881FC2F7E7
:101430000EC0BA0F621F731F841F48F487957795FB
:101440006795B795F7959E3F08F0B0CF9395880FB5
:1014500008F09927EE0F9795879508950E94E30B62
:1014600060F080E891E009F49EEF0E94EA0B28F01A
:1014700040E851E071F45EEF0CC00C94B90B0C9491
:10148000630CE92FE0780E94410C40F3092E052AF5
:10149000B1F3261737074807590738F00E2E07F81B
:1014A000E02569F0E025E0640AC0EF6307F80094E6
:1014B00007FADB01B9019D01DC01CA01AD01EF931F
:1014C0000E94C10A0E941C0C0E94710A5F91552360
:1014D00039F02BED3FE049E450FD49EC0C94C20992
:1014E0000895DF93DD27B92FBF7740E85FE3161635
:1014F000170648075B0718F4D92F0E946F0C9F93BB
:101500008F937F936F930E942A0DE8E6F0E00E948C
:10151000BC0B0E941C0C2F913F914F915F910E9438
:101520008A0CDD2351F09058A2EA2AED3FE049EC05
:101530005FE3D0785D270E94D909DF910C941C0CE1
:101540000E948F0B08F481E008950E94F30BE3954D
:101550000C942D0C0E94BE0A0C941C0C0E94EA0BE9
:1015600058F00E94E30B40F029F45F3F29F00C94FF
:10157000B30B51110C94640C0C94B90B0E94410CE8
:1015800068F39923B1F3552391F3951B550BBB27B2
:10159000AA2762177307840738F09F5F5F4F220FF7
:1015A000331F441FAA1FA9F335D00E2E3AF0E0E8EE
:1015B00032D091505040E695001CCAF72BD0FE2F38
:1015C00029D0660F771F881FBB1F261737074807CC
:1015D000AB07B0E809F0BB0B802DBF01FF27935884
:1015E0005F4F3AF09E3F510578F00C94B30B0C948A
:1015F000640C5F3FE4F3983ED4F386957795679546
:10160000B795F7959F5FC9F7880F911D96958795B8
:1016100097F90895E1E0660F771F881FBB1F6217D7
:1016200073078407BA0720F0621B730B840BBA0B95
:10163000EE1F88F7E09508950E94230B6894B1117E
:101640000C94640C08950E94490C88F09F5798F000
:10165000B92F9927B751B0F0E1F0660F771F881FB7
:10166000991F1AF0BA95C9F714C0B13091F00E94D1
:10167000630CB1E008950C94630C672F782F8827D2
:10168000B85F39F0B93FCCF3869577956795B395F8
:10169000D9F73EF490958095709561957F4F8F4F67
:1016A0009F4F0895E89409C097FB3EF4909580956C
:1016B000709561957F4F8F4F9F4F9923A9F0F92F18
:1016C00096E9BB279395F695879577956795B79596
:1016D000F111F8CFFAF4BB0F11F460FF1BC06F5F7C
:1016E0007F4F8F4F9F4F16C0882311F096E911C08E
:1016F000772321F09EE8872F762F05C0662371F0AF
:1017000096E8862F70E060E02AF09A95660F771FC2
:10171000881FDAF7880F9695879597F90895990F9E
:101720000008550FAA0BE0E8FEEF16161706E807AB
:10173000F907C0F012161306E407F50798F0621BCC
:10174000730B840B950B39F40A2661F0232B242BA1
:10175000252B21F408950A2609F4A140A6958FEFC0
:10176000811D811D089597F99F6780E870E060E012
:1017700008959FEF80EC0895DF93CF931F930F930D
:10178000FF92EF92DF927B018C01689406C0DA2E03
:10179000EF010E948A0CFE01E894A59125913591F4
:1017A00045915591A6F3EF010E94D909FE019701D9
:1017B000A801DA9469F7DF90EF90FF900F911F91E5
:1017C000CF91DF91089500240A9416161706180683
:1017D0000906089500240A94121613061406050635
:1017E00008950C94B90B0E94490CD8F3E894E0E0FA
:1017F000BB279F57F0F02AED3FE049EC06C0EE0F03
:10180000BB0F661F771F881F28F0B23A6207730765
:10181000840728F0B25A620B730B840BE3959A95F8
:1018200072F7803830F49A95BB0F661F771F881FB8
:10183000D2F790480C94300D092E0394000C11F44B
:10184000882352F0BB0F40F4BF2B11F460FF04C09B
:101850006F5F7F4F8F4F9F4F0895EF93E0FF07C05B
:10186000A2EA2AED3FE049EC5FEB0E94D9090E9411
:101870001C0C0F90039401FC9058E5E9F0E00C94E7
:10188000430D57FD9058440F551F59F05F3F71F0BD
:101890004795880F97FB991F61F09F3F79F08795D7
:1018A0000895121613061406551FF2CF4695F1DF60
:1018B00008C0161617061806991FF1CF86957105F0
:1018C000610508940895E894BB2766277727CB0124
:1018D00097F908950E948F0B08F48FEF08959B01EC
:1018E000AC0160E070E080E89FE30C94AA0A0E94DB
:1018F0008A0C0C941C0C0E94E30B38F00E94EA0B3B
:1019000020F0952311F00C94B30B0C94B90B112417
:101910000C94640C0E94410C70F3959FC1F3950FD9
:1019200050E0551F629FF001729FBB27F00DB11D63
:10193000639FAA27F00DB11DAA1F649F6627B00DF3
:10194000A11D661F829F2227B00DA11D621F739FDC
:10195000B00DA11D621F839FA00D611D221F749FEA
:101960003327A00D611D231F849F600D211D822F31
:10197000762F6A2F11249F5750409AF0F1F0882358
:101980004AF0EE0FFF1FBB1F661F771F881F915085
:101990005040A9F79E3F510580F00C94B30B0C9476
:1019A000640C5F3FE4F3983ED4F386957795679592
:1019B000B795F795E7959F5FC1F7FE2B880F911DAF
:1019C0009695879597F9089519F416F40C94B90B28
:1019D0000C942E0D0E94490CB8F39923C9F3B6F369
:1019E0009F57550B87FF0E943C0D0024A0E640EA5C
:1019F000900180585695979528F4805C660F771F64
:101A0000881F20F026173707480730F4621B730B36
:101A1000840B202931294A2BA69517940794202559
:101A200031254A2758F7660F771F881F20F02617A1
:101A30003707480730F4620B730B840B200D311D00
:101A4000411DA09581F7B901842F9158880F969573
:101A5000879508959B01AC010C94770C9F3F31F062
:101A6000915020F4879577956795B795880F911DCC
:101A70009695879597F9089591505040660F771F76
:101A8000881FD2F708959F938F937F936F93FF934F
:101A9000EF939B01AC010E94770CEF91FF910E94A4
:101AA000BC0B2F913F914F915F910C94770CA0E16B
:101AB000B0E0EDE5FDE00C94FE107C011B016A0135
:101AC000FC0117821682838181FF44C39E012F5F30
:101AD0003F4F3901F7019381F10193FD859193FF08
:101AE00081911F01882309F431C3853239F493FDB4
:101AF000859193FF81911F01853239F4B70190E000
:101B00000E944B1256016501E5CF10E0512C912C3B
:101B1000FFE1F915D8F08B3279F038F4803279F0A2
:101B20008332A1F4F92DF0612EC08D3261F0803343
:101B300069F4292D21602DC0392D3260932E892D15
:101B40008460982E2AC0E92DE86015C097FC2DC04E
:101B500020ED280F2A3088F496FE06C03AE0139F45
:101B6000200D1124122F19C08AE0589E200D112437
:101B7000522EE92DE0629E2E10C08E3231F496FC7A
:101B8000E5C2F92DF0649F2E08C08C3621F4292D72
:101B90002068922E02C0883641F4F10193FD8591B0
:101BA00093FF81911F018111B3CF9BEB980F93306D
:101BB00020F4992D9061805E07C09BE9980F9330C7
:101BC00008F066C1992D9F7E96FF16E09F73992EAF
:101BD000853619F49064992E08C0863621F4392F81
:101BE0003068932E02C01111115097FE07C01C33AC
:101BF00050F444244394410E27E00BC0183038F0D1
:101C000027E017E005C027E09CE3492E02C0212F02
:101C1000412C560184E0A80EB11CF601608171814F
:101C200082819381042DA3010E944F116C01F981DF
:101C3000FC87F0FF02C0F3FF06C091FC06C092FED5
:101C400006C000E205C00DE203C00BE201C000E0E7
:101C50008C858C7019F001115AC29BC297FE10C07E
:101C60004C0CFC85F4FF04C08A81813309F44A944A
:101C7000141474F528E0241578F588E0482E2CC05B
:101C800096FC2AC0812F90E08C159D059CF03CEFBE
:101C9000C3163FEFD30674F0892D8068982E0AC0D2
:101CA000E2E0F0E0EC0FFD1FE10FF11D80818033D9
:101CB00019F411501111F4CF97FE0EC0442443942F
:101CC000410E812F90E0C816D9062CF41C1904C0CF
:101CD0004424439401C010E097FE06C01C141D0468
:101CE00034F4C601019605C085E090E002C081E0B1
:101CF00090E001110196112331F0212F30E02F5F88
:101D00003F4F820F931F252D30E08217930714F465
:101D1000581A01C0512C892D897049F4552039F089
:101D2000B70180E290E00E944B125A94F7CF002353
:101D300029F0B701802F90E00E944B1293FC09C05C
:101D4000552039F0B70180E390E00E944B125A947D
:101D5000F7CF97FE4CC04601D7FE02C0812C912CD4
:101D6000C60188199909F301E80FF91FFE87ED876D
:101D7000960124193109388B2F87012F10E0119516
:101D8000019511093FEF8316930629F4B7018EE2FE
:101D900090E00E944B12C814D9044CF08F859889AA
:101DA0008815990524F4ED85FE85818101C080E3C5
:101DB000F1E08F1A91082D853E852F5F3F4F3E87BA
:101DC0002D87801691062CF0B70190E00E944B12EF
:101DD000D9CFC814D90441F49A81963320F49533AD
:101DE00019F43C8534FF81E3B70190E04EC08A814D
:101DF000813319F09C859F7E9C87B70190E00E94FB
:101E00004B12111105C094FC18C085E690E017C074
:101E1000B7018EE290E00E944B121E5F82E001E06B
:101E2000080FF301E80FF11D8081B70190E00E94D7
:101E30004B12802F0113F3CFE6CF85E490E0B7017A
:101E40000E944B12D7FC06C0C114D10441F4EC85AA
:101E5000E4FF05C0D194C194D1088DE201C08BE2AA
:101E6000B70190E00E944B1280E32AE0C216D10431
:101E70002CF08F5FFAE0CF1AD108F7CFB70190E0CE
:101E80000E944B12B701C601C0960E944B1254C16A
:101E9000833631F0833779F0833509F056C020C09E
:101EA000560132E0A30EB11CF6018081898301E066
:101EB00010E0630112C05601F2E0AF0EB11CF60152
:101EC000C080D18096FE03C0612F70E002C06FEF2A
:101ED0007FEFC6010E9440128C01F92DFF7714C0DC
:101EE000560122E0A20EB11CF601C080D18096FE00
:101EF00003C0612F70E002C06FEF7FEFC6010E9448
:101F000027128C01F92DF0689F2EF3FD1AC0852D44
:101F100090E008171907A8F4B70180E290E00E944A
:101F20004B125A94F4CFF60197FC859197FE81915C
:101F30006F01B70190E00E944B1251105A9401506A
:101F400011090115110579F7F7C0843611F08936AA
:101F500061F5560197FE09C024E0A20EB11CF601FE
:101F600060817181828193810AC0F2E0AF0EB11C61
:101F7000F60160817181072E000C880B990BF92DF9
:101F8000FF769F2E97FF09C090958095709561957B
:101F90007F4F8F4F9F4FF0689F2E2AE030E0A301C4
:101FA0000E949D12C82EC6183FC0092D853721F406
:101FB0000F7E2AE030E01DC0097F8F3691F018F4C3
:101FC000883559F0C3C0803719F0883711F0BEC08A
:101FD000006104FF09C0046007C094FE08C00660E9
:101FE00006C028E030E005C020E130E002C020E17A
:101FF00032E0560107FF09C084E0A80EB11CF601CB
:10200000608171818281938108C0F2E0AF0EB11CC2
:10201000F6016081718180E090E0A3010E949D1231
:10202000C82EC6180F77902E96FE0BC0092D0E7F76
:10203000C11650F494FE0AC092FC08C0092D0E7E11
:1020400005C0DC2C092D03C0DC2C01C0D12E04FFFF
:102050000DC0FE01EC0DF11D8081803311F4097E6D
:1020600009C002FF06C0D394D39404C0802F8678A1
:1020700009F0D39403FD11C000FF06C01C2DD51438
:1020800080F4150D1D190DC0D51458F4B70180E268
:1020900090E00E944B12D394F7CFD51410F45D1842
:1020A00001C0512C04FF10C0B70180E390E00E94F2
:1020B0004B1202FF17C001FD03C088E790E002C089
:1020C00088E590E0B7010CC0802F867859F001FFB9
:1020D00002C08BE201C080E207FD8DE2B70190E013
:1020E0000E944B12C11638F4B70180E390E00E94C1
:1020F0004B121150F7CFCA94F301EC0DF11D808102
:10210000B70190E00E944B12C110F5CF15C0F4E06A
:10211000F51560F584E0581A93FE1FC0011127C021
:102120002C8523FF2AC004EB10E0392D3071932E4B
:10213000F8018491811124C0552009F4E4CCB70141
:1021400080E290E00E944B125A94F6CFF70186810C
:10215000978126C08FEF9FEF23C0B70180E290E008
:102160000E944B125A945110F8CFD8CF512CB7017E
:10217000802F90E00E944B12D3CF08EB10E0D5CF18
:1021800091108052B70190E00E944B120F5F1F4FD9
:10219000CFCF23E0251510F483E0BDCF512CC0CF65
:1021A0006096E2E10C941A11A1E21A2EAA1BBB1B45
:1021B000FD010DC0AA1FBB1FEE1FFF1FA217B30713
:1021C000E407F50720F0A21BB30BE40BF50B661F29
:1021D000771F881F991F1A9469F7609570958095ED
:1021E00090959B01AC01BD01CF010895B7FF0C9400
:1021F00035110E943511821B930B08952F923F9247
:102200004F925F926F927F928F929F92AF92BF9206
:10221000CF92DF92EF92FF920F931F93CF93DF93B2
:10222000CDB7DEB7CA1BDB0B0FB6F894DEBF0FBE0F
:10223000CDBF09942A88398848885F846E847D845C
:102240008C849B84AA84B984C884DF80EE80FD805E
:102250000C811B81AA81B981CE0FD11D0FB6F894D4
:10226000DEBF0FBECDBFED0108950E944011A59FB6
:10227000900DB49F900DA49F800D911D1124089581
:10228000A29FB001B39FC001A39F700D811D1124B7
:10229000911DB29F700D811D1124911D089528304C
:1022A00008F027E03327DA01990F311D87FD91608F
:1022B00000966105710539F432602E5F3D9330E37D
:1022C0002A95E1F708959F3F30F080387105610548
:1022D00009F03C5F3C5F3D93913008F08068911DB0
:1022E000DF93CF931F930F93FF92EF92192F987F55
:1022F0009695E92F96959695E90FFF27EA5EFE4F92
:1023000099273327EE24FF24A701E70105900894BD
:10231000079428F4360FE71EF81E491F511D660F5B
:10232000771F881F991F0694A1F70590079428F43A
:10233000E70EF81E491F561FC11D770F881F991FF2
:10234000661F0694A1F70590079428F4F80E491F1C
:10235000561FC71FD11D880F991F661F771F069430
:10236000A1F70590079420F4490F561FC71FD81FE7
:10237000990F661F771F881F0694A9F784911095FF
:10238000177041F0D695C79557954795F794E79400
:102390001A95C1F7ECEBF0E0689415901591359122
:1023A0006591959105907FE27395E118F10A430BD1
:1023B000560BC90BD009C0F7E10CF11E431F561F85
:1023C000C91FD01D7EF4703311F48A95E6CFE894CE
:1023D000015030F0080F0AF40027021708F4202FEC
:1023E0002395022F7A3328F079E37D932A95E9F734
:1023F00010C07D932A9589F6069497956795379531
:1024000017951794E118F10A430B560BC90BD00925
:1024100098F023957E9173957A3308F070E37C935E
:102420002013B8F77E9170617D9330F0839571E34E
:102430007D9370E32A95E1F71124EF90FF900F91BF
:102440001F91CF91DF91992787FD90950895FC0109
:102450000590615070400110D8F7809590958E0FCF
:102460009F1F0895FB01DC014150504030F08D91D9
:102470000190801919F40020B9F7881B990B089571
:10248000FC016150704001900110D8F78095909543
:102490008E0F9F1F08950F931F93CF93DF93FB0120
:1024A000238121FD03C08FEF9FEF2CC022FF16C0B8
:1024B00046815781248135814217530744F4A08116
:1024C000B1819D012F5F3F4F318320838C93268103
:1024D00037812F5F3F4F3783268314C08B01EC0178
:1024E000FB010084F185E02D0995892BE1F6D801E7
:1024F00016968D919C911797019617969C938E93A3
:102500001697CE01DF91CF911F910F910895A0E012
:10251000B0E0EDE8F2E10C940E11AE014B5F5F4FBD
:10252000FA0161917191AF018091C9019091CA0145
:102530000E94570DE2E00C942A11FA01AA272830D4
:1025400051F1203181F1E8946F936E7F6E5F7F4F80
:102550008F4F9F4FAF4FB1E03ED0B4E03CD0670FFC
:10256000781F891F9A1FA11D680F791F8A1F911D4F
:10257000A11D6A0F711D811D911DA11D20D009F49F
:1025800068943F912AE0269F11243019305D3193E1
:10259000DEF6CF010895462F4770405D4193B3E0CA
:1025A0000FD0C9F7F6CF462F4F70405D4A3318F071
:1025B000495D31FD4052419302D0A9F7EACFB4E022
:1025C000A6959795879577956795BA95C9F70097DA
:1025D0006105710508959B01AC010A2E069457957B
:1025E000479537952795BA95C9F7620F731F841FD2
:0A25F000951FA01D0895F894FFCF79
:1025FA0000000002000000008C09000000004750A3
:10260A0047474100475056544700474E4747410005
:10261A000A693263202D20446973743A20256C6458
:10262A0020092048656164696E673A202564202084
:10263A0020202020200A00446973743A202566204D
:10264A00092048656164696E673A20256620202062
:04265A0020200A0032
:00000001FF
